S01800006275696C642F6D6963617A2F6D61696E2E73726563E5
S11300000C9449000C9408050C9412050C941C05DE
S11300100C9426050C9430050C943A050C94A60611
S11300200C9444050C9468000C9468000C941C1502
S11300300C94850B0C94D2040C94E8040C9486055F
S11300400C94C1040C94B90D0C9468000C946800D1
S11300500C9468000C9468000C9468000C9468007C
S11300600C94DD040C9468000C9468000C946800F3
S11300700C9468000C9468000C9468000C9468005C
S11300800C9468000C9468000C94680000081C1818
S1130090141011241FBECFEFD0E1DEBFCDBF11E09D
S11300A0A0E0B1E0E2EBF1E300E00BBF02C0079097
S11300B00D92AE30B107D9F712E0AEE0B1E001C065
S11300C01D92A734B107E1F70E9440130C94D8188D
S11300D00C9400008FB7F894992708958FBF089562
S11300E0FC0182819927582F442781819927482B25
S11300F0592BCA01892F992786958695837090700C
S11301008230910559F08330910559F0892B19F407
S113011020E030E008C02CE93FEF05C022E030E0E9
S113012002C028E030E0CA0184E0989F812D99271D
S113013011248230910559F08330910559F0892BAF
S113014019F480E090E008C08CE99FEF05C082E0DC
S113015090E002C088E090E0280F391F2A5F3F4FEB
S1130160CF01820F931F0895282F9FB7F894662319
S113017049F0E82FFF27E553FE4F8081882311F0D3
S113018021E006C0E22FFF27E553FE4F608320E005
S1130190892F99278FBF822F99270895E82F8FB72A
S11301A0F894282F332790E0FF27E553FE4F8081F2
S11301B0861709F491E02FBF892F99270895882382
S11301C011F06E9A08956E980895882311F06F9A2D
S11301D008956F98089580E00E94DF00BA9ABB9852
S11301E0B99AB89A6C9A80E00E94E5006B986A9874
S11301F081E00E94DF00709A8DB18C7F8DB90895E3
S11302000F931F93CF93DF93182F8FB7F894C82FB2
S1130210DD270C2F61E080E00E94B400882321F0E8
S1130220CFBF85E090E024C0809105018823A1F42C
S113023080911701823081F409C082E08093170114
S1130240109205010E94EB00B89AC0981093020125
S113025080E00FBF99270CC080911701882369F3B0
S11302608FB7F89499271092CB018FBF81E0F1CF1B
S1130270DF91CF911F910F910895282F9FB7F89484
S1130280E82FFF27E55CFE4F80818F3F81F4E091EA
S11302904302E21771F40BC02093350204C0FF2718
S11302A0E55CFE4F20832093430220E007C025E055
S11302B005C0809135028F3F91F7EECF892F9927A2
S11302C08FBF822F992708951F93182F81E00E94D2
S11302D0DF001FB9779BFECF8FB199271F91089537
S11302E08F929F92AF92BF92CF92DF92EF92FF9242
S11302F00F931F93CF93DF938FB7F8949927C090F0
S11303003E02D0903F028090900190909101C09164
S11303107801D09179012091200130912101EAE006
S1130320AE2EB12CAC0EBD1E2A153B0508F45901A6
S11303308FBF7401EC0EFD1E86010C0F1D1F14C02F
S1130340C114D10419F0F801808101C080E00E9439
S113035064018114910411F0F701808321960894BB
S1130360E11CF11C0F5F1F4FC5010197C817D90786
S113037038F381E00E94E5009FB7F894C114D104DA
S113038031F0CC0EDD1EF60180818FB901C01FB89B
S1130390D0937901C0937801892F99278FBF80E08A
S11303A090E0DF91CF911F910F91FF90EF90DF903C
S11303B0CF90BF90AF909F908F9008952FB7F894EF
S11303C03327509321014093200190933F0280935F
S11303D03E02709391016093900110927901109202
S11303E078012FBF452B29F08FB10E947001992706
S11303F0089589E00E943D0180E090E008958FB760
S1130400F89499271092CD018FBF089580E88093C6
S11304103901109254011092380210923402109251
S113042050010895CF93DF93FC0115A6DC019E963D
S1130430ED011B821A82198280E886A7DF91CF9191
S113044008952F923F924F925F926F927F928F9274
S11304509F92AF92BF92CF92DF92EF92FF920F934F
S11304601F93CF93DF93CDB7DEB728970FB6F894D9
S1130470DEBF0FBECDBF20905C0130905D01409087
S11304805E0150905F01662477248824BEE4AB2E7D
S1130490A3E8BA2ECC24DD24EE24FF2400E010E0EF
S11304A0222D332D442D552D662D772D882D90E04A
S11304B00E94BA1629833A834B835C836D837E83BF
S11304C08F839887822E932EA42EB52E2401350176
S11304D000E20E94B817A22EB32EC42ED52EC3015B
S11304E0B20196958795779567956A0D7B1D8C1D4E
S11304F09D1D97FF05C09F776F5F7F4F8F4F9F4F65
S113050060935C0170935D0180935E0190935F0141
S113051028960FB6F894DEBF0FBECDBFDF91CF9102
S11305201F910F91FF90EF90DF90CF90BF90AF900D
S11305309F908F907F906F905F904F903F902F90FF
S113054008958FB7F89460917C0170917D012CB56A
S11305503DB506B602FE04C06F5F7F4F2CB53DB5B6
S113056099278FBF88279927CB01772766274427A8
S11305705527622B732B842B952B0895EF92FF92B2
S11305800F931F930E94A1027B018C0120916701AC
S1130590309168014091690150916A018091620132
S11305A090916301A0916401B0916501820F931F42
S11305B0A41FB51FE216F3060407150730F08217CF
S11305C09307A407B50758F005C082179307A4073B
S11305D0B507E0F5E816F9060A071B07B8F59C010C
S11305E0AD012E193F09400B510B213060E836074D
S11305F060E0460760E0560768F180E090E8A0E01C
S1130600B0E0E80EF91E0A1F1B1FE0926701F0928A
S113061068010093690110936A0180E090E8AFEFEC
S1130620BFEFE80EF91E0A1F1B1F20503048404040
S113063050402093620130936301409364015093CE
S1130640650120E030E840E050E014C020E030E0F4
S113065040E050E08093670190936801A0936901A2
S1130660B0936A01109262011092630110926401C6
S113067010926501A901B7012CB53DB5C9018E19C8
S11306809F0903968417950720F0B9016D5F7F4F8A
S113069002C0640F751F6115710511F461E070E00B
S11306A0615070407BBD6ABD80E186BF87B78061C1
S11306B087BF1F910F91FF90EF9008950F931F93A1
S11306C00FB7F894112760936701709368018093C2
S11306D0690190936A01209362013093630140930E
S11306E06401509365010E94BE020FBF1F910F91D8
S11306F00895CF92DF92EF92FF920F931F93CF93BF
S1130700DF938C01F62E6A01E22E8FB7F894C82F7E
S1130710DD2760E080E00E94CE00882321F0CFBF77
S113072080E090E01EC0CFBF0F0D111D802F8068A8
S11307300E946401F82E16950795802F807C0E94F4
S113074064010E2D0AC0EE2DFF27E01BF109EC0D0C
S1130750FD1D80810E94640101500023A1F78F2DAB
S11307609927DF91CF911F910F91FF90EF90DF9028
S1130770CF90089597B79F7D97BF90E296BF882347
S113078019F08EB5806402C08EB58F7B8EBD87B79D
S1130790806287BF80E090E008957FB7F89462B7E5
S11307A0209123013091240140912501509126018B
S11307B006B601FE0FC081B792B7280F311D411D47
S11307C0511D2F5F3F4F4F4F5F4F290F311D411D6B
S11307D0511D04C0260F311D411D511D872F99271E
S11307E08FBFCA01B9010895DF92EF92FF920F9370
S11307F01F938FB7F894282F3327D22E91B782B73F
S113080046B7981711F041FF02C02FBF6AC080910C
S113081077018823E1F10E94CD03E090C701F090B5
S1130820C8010091C9011091CA012091350130918C
S1130830360140913701509138016E197F09800BC0
S1130840910B621773078407950720F010927701C4
S113085071E01EC02E0D3F1D401F511F80912301CA
S113086090912401A0912501B0912601281B390BF8
S11308704A0B5B0B273E31054105510540F4822F9D
S1130880223010F070E005C070E082E002C070E039
S113089086EE682F615000B601FCFDCF82B7681761
S11308A009F46F5F209123013091240140912501C7
S11308B050912601DA01C9010196A11DB11D860FCF
S11308C0911DA11DB11D82179307A407B50710F44C
S11308D0622F609561BFDFBE772319F080E00E942C
S11308E03D011F910F91FF90EF90DF900895AFB7F6
S11308F0F894BB27E1E0E09377016093C70170931C
S1130900C8018093C9019093CA01209335013093A3
S113091036014093370150933801AFBF0E94F4036E
S11309200895AF92BF92CF92DF92EF92FF920F930E
S11309301F93CF93DF93CDB7DEB728970FB6F89404
S1130940DEBF0FBECDBF20E070E0E0910001F0916A
S1130950010132E14DE65CE46FE4809101019E2FD8
S113096028960FB6F894DEBF0FBECDBFDF91CF91AE
S11309701F910F91FF90EF90DF90CF90BF90AF90B9
S113098008951F920F920FB60F9211248F9383B77D
S113099083BF00B600FCFDCF8F910F900FBE0F9068
S11309A01F90189578941F920F920FB60F921124EE
S11309B00F900FBE0F901F90189578941F920F926E
S11309C00FB60F9211240F900FBE0F901F90189521
S11309D078941F920F920FB60F9211242F933F9386
S11309E08F939F932FB7F894332780917C01909134
S11309F07D01019690937D0180937C012FBF9F918F
S1130A008F913F912F910F900FBE0F901F901895CB
S1130A101F920F920FB60F9211240F900FBE0F90DA
S1130A201F9018951F920F920FB60F9211240F90DA
S1130A300FBE0F901F9018951F920F920FB60F9232
S1130A4011240F900FBE0F901F9018951F920F92B4
S1130A500FB60F9211240F900FBE0F901F90189590
S1130A601F920F920FB60F9211240F900FBE0F908A
S1130A701F9018951F920F920FB60F9211240F908A
S1130A800FBE0F901F9018951F920F920FB60F92E2
S1130A9011240F900FBE0F901F901895CF93DF93E2
S1130AA0CDB7DEB72C970FB6F894DEBF0FBECDBF1F
S1130AB08FB7F894282FAE014F5F5F4FDA01E1ED55
S1130AC0F1E088E001900D928150E1F780915701A7
S1130AD0909158018987892F99278A8780916B0182
S1130AE090916C018B87892F99278C872FBF2CE0DD
S1130AF060E080E691E00E9479032C960FB6F894AA
S1130B00DEBF0FBECDBFDF91CF9108951F920F922C
S1130B100FB60F9211242F933F934F935F936F93CC
S1130B207F938F939F93AF93BF93EF93FF9383B779
S1130B3083BF00B600FCFDCF81B799270196AA2791
S1130B40BB2720912301309124014091250150912C
S1130B502601280F391F4A1F5B1F2093230130935E
S1130B602401409325015093260178940E94F403B4
S1130B70FF91EF91BF91AF919F918F917F916F9171
S1130B805F914F913F912F910F900FBE0F901F9047
S1130B9018950F931F93182F0FB7F89461E080E016
S1130BA00E94B400882371F510930201809105011D
S1130BB08823A9F580911701823089F588E00CC05B
S1130BC00E94EB0080911701882349F481E080930F
S1130BD01701109251018AE00E943D012AC08091C0
S1130BE066018F3F31F5E0910401EE2311F11CC041
S1130BF01092030104C0FF27EA59FE4F108210929D
S1130C00040117C081E090E002C0880F991F1A9573
S1130C10E2F720911601282B209316010AC0809137
S1130C2017018823E1F6CCCF809103018F3F19F798
S1130C30DFCF802F99278FBF80E090E01F910F9125
S1130C4008951F9383E00E9400019927182F882399
S1130C5019F083E00E94C905812F99271F910895F7
S1130C601F93CF93DF93182F8FB7F894C82FDD27E6
S1130C7060E080E00E94CE00882321F0CFBF80E0B6
S1130C8090E005C0CFBF812F0E9464019927DF91B6
S1130C90CF911F910895EF92FF920F931F93CF93DB
S1130CA0DF93182F7B01042F8FB7F894C82FDD270B
S1130CB060E080E00E94CE00882321F0CFBF80E076
S1130CC090E014C0CFBF1064812F992790937001D6
S1130CD080936F010E946401182F402F5527B7019C
S1130CE080E090E00E94DE01812F9927DF91CF916F
S1130CF01F910F91FF90EF900895C09860911E018D
S1130D0070911F0141E08FE30E944B06089582E039
S1130D1090E090934B0180934A0181E080935401C9
S1130D2020E030E080910201843011F421E030E0D1
S1130D30232B29F484E00E940001882319F40E94E3
S1130D407D06089584E00E94C90508951F920F92BC
S1130D500FB60F9211242F933F934F935F936F938A
S1130D607F938F939F93AF93BF93EF93FF93809160
S1130D704A0190914B01019749F482E090E09093ED
S1130D804B0180934A010E94870605C0809150015F
S1130D908F5F80935001FF91EF91BF91AF919F912D
S1130DA08F917F916F915F914F913F912F910F9010
S1130DB00FBE0F901F9018951F93809116018823E2
S1130DC009F04BC0109102011F3F09F046C060E0DA
S1130DD00E94CE00882309F440C081E08093DA01A8
S1130DE080913A018823E1F11092DA0185E090E0E4
S1130DF045C0923069F5C09A8091030120E030E04B
S1130E008F3F11F421E030E0232BE9F41093050126
S1130E108F3F19F42FEF30E00DC0282F3327F9014D
S1130E20EA59FE4F8081809303018F3F11F41093A0
S1130E30040110832093510181E0809317018AE01B
S1130E400E943D0105C0109305011092170111C0C5
S1130E5080911701882369F00FC081E090E00EC0F3
S1130E608091050190911701882319F2923021F0A5
S1130E70EFCF80E00E94DF0080E090E01F910895B2
S1130E801F93CF93DF939FB7F894C92FDD271C2FAF
S1130E9090910201981721F0CFBF81E090E03AC011
S1130EA08FEF80930201309116013323F1F48FB751
S1130EB0F89499271092CB018FBF0E94DC06CFBF14
S1130EC011C02093020181E090E002C0880F991FB5
S1130ED04A95E2F7809538233093160188E00E9402
S1130EE03D011FBF80E090E015C080E065E0E32F86
S1130EF0FF270E943B18292F492F5527CF01042E85
S1130F0002C0959587950A94E2F780FDDACF822F87
S1130F108F5FEFCFDF91CF911F9108951F93CF93F0
S1130F20DF938FB7F894C82FDD271C2F80914A01D7
S1130F3090914B01892B29F484E00E944007CFBF94
S1130F401EC01092540180915001882311F0B7996A
S1130F5004C00E9908C0882319F081508093500171
S1130F600E9487060BC081E090E090934B01809330
S1130F704A011092500184E00E9440071FBFDF9194
S1130F80CF911F9108950E940602C09AC09888E0EC
S1130F900E94300688E00E943006C09A84E00E94D5
S1130FA040070E948E070895FF920F931F93CF93DB
S1130FB0DF93F82E8B018FB7F894C82FDD2760E0FC
S1130FC080E00E94CE00882321F0CFBF80E090E033
S1130FD00CC0CFBF8F2D0E946401812F99270E94DE
S1130FE06401802F0E9464019927DF91CF911F91A2
S1130FF00F91FF9008951F931FB7F89480914F01AC
S1131000882319F460E070E009C060E080913D023B
S1131010882309F461E081E06827772780915901EA
S1131020882319F480E090E00AC090E08091D00118
S1131030882309F491E081E09827892F9927762F56
S11310406627770F770F770FF4E0880F991FFA95CB
S1131050E1F7826E9262682B792B81E10E94D407BA
S1131060812F99278FBF1F9108958FB7F8949927DF
S11310706091D9018FBF85E0689FB0011124625D42
S11310807E4F706488E10E94D4070895EF92FF9226
S11310901F93CF93DF93E0905A01F0905B01F70127
S11310A082A59927182F882309F41FE1C0988091FD
S11310B04E01811749F0612F77276F717070606E50
S11310C0706885E10E94D40710934E01F7011081E6
S11310D08FB7F894C82FDD2760E080E00E94CE002F
S11310E0882311F0CFBF12C0CFBF8EE390E090935E
S11310F0700180936F018EE30E9464011150412FAF
S1131100552760E070E0C7010E94DE01DF91CF91B6
S11311101F91FF90EF9008950F931F93CF93DF9348
S1131120EC010FB7F89411270E947000FC018FE3C3
S113113080830FBF10923B0210923A0261E082E07A
S11311400E94B400882319F085E090E072C0809179
S1131150DB018F5F8093DB0181508B838FB7F89421
S1131160082F112762E081E00E94CE00882329F431
S11311700FBF0E94FF0181E05BC08FB7F8949927ED
S113118024E02093CC018FBFD0937601C0937501E6
S11311900FBFFE013196818129819927982F8827D5
S11311A03327822B932B80729C7C8983892F9927E8
S11311B081832981982F882733272164822B932BBD
S11311C08983892F992781831CA618A619A619AA91
S11311D018AA1FA680E88EA761E06093CF01409112
S11311E07501509176018FB7F894282F3327809199
S11311F01801909119018830910511F0019711F0AF
S11312002FBF15C082E090E09093190180931801DC
S11312106093460250935B0140935A01109222015D
S11312202FBF0E942106882311F40E94460880E003
S11312309927DF91CF911F910F910895CF93DF9359
S1131240DA01422F2D3118F082E090E05EC0ED010A
S11312508B876E83872F99278F832FB7F894332733
S113126080915701909158012FBFFD018483892FEC
S1131270992785832FB7F89433278091060190919D
S113128007012FBF8887892F992789873196818104
S113129029819927982F8827332720643868822B3F
S11312A0932B8983892F99278183435F4C934D50D6
S11312B080910901882359F010920901642FCD010E
S11312C00E948C089927282F8823A9F417C0842FFB
S11312D099279093740180937301B0931D01A09397
S11312E01C018CE00E943D0180910901882349F48E
S11312F089E090E00AC08FEF80930901822F99273B
S113130004C01092600180E090E0DF91CF910895D5
S11313101F93182F813009F05FC080910E0188233C
S113132009F05EC080910F01882309F059C08091B3
S11313301101882309F454C080911001882309F411
S11313404FC0D89810930F011093A1011092A001DF
S1131350809155019091560180939F01892F99277F
S113136080939E011092A6011093A7011093A401EB
S11313701092A20142E951E08FEF8093980180938B
S1131380990186E080939D0180917A0190917B017F
S1131390892B31F550937B0140937A0189E1809345
S11313A0920180910C01882399F010920C012CE099
S11313B06FEF7FEF86E00E941E099927882341F092
S11313C010930C0110927B0110927A01882341F44E
S11313D081E080930E0104C0882311F410920F0160
S11313E01F910895AF92BF92CF92DF92EF92FF9236
S11313F00F931F935B016C016091860161FF20C014
S113140020917E0130917F014091800150918101B2
S1131410E0908201F0908301009184011091850194
S1131420D601C501821B930BA40BB50B8E159F052A
S1131430A007B10728F0EEE7F1E0A0E0B0E021C09A
S1131440E7E8F1E060918F0161FF32C020918701EC
S1131450309188014091890150918A01E0908B017B
S1131460F0908C0100918D0110918E01A21AB30AA3
S1131470C40AD50AAE14BF04C006D106C8F0A1E060
S1131480B0E060FF04C080858D7F808708C02E0D8A
S11314903F1D401F511F2083318342835383AA235E
S11314A039F4989902C081E001C080E00E94880963
S11314B081E00E943D011F910F91FF90EF90DF901A
S11314C0CF90BF90AF9008951F93CF93DF93182FC1
S11314D0EB01E82FFF27EE0FFF1FE658FE4F1182A6
S11314E0108210920C01E0917A01F0917B01309707
S11314F021F08091390280FF0FC081E080930C01BC
S113150003C08EE00E943D011123C1F4C259D140B1
S1131510A9F410920E0112C020812D503327678147
S11315207727762F662786819927682B792BAF0139
S113153083850E941E09882339F3E3CFDF91CF917D
S11315401F9108959B0180910C01882349F46091B7
S11315507A0170917B016217730711F40E94640A87
S113156008951F93182F81E090E0909319018093C0
S1131570180110923A010E94DC068FB7F89499275B
S1131580109312018FBF84E00E943D011F910895C2
S113159061E081E00E94B4008823E9F48FB7F894F5
S11315A0282F33278091130190911401892B11F076
S11315B02FBF20C081E090E0909314018093130129
S11315C02FBFDD9A0E94A10224E130E040E050E008
S11315D00E945E030FC062E081E00E94CE00882377
S11315E019F089E090E0089561E081E00E94CE0066
S11315F0882319F080E090E0089585E090E0089554
S1131600CF92DF92EF92FF920F931F93CFB6F8948D
S1131610DD240E942102DC01CB0166E470E00E941B
S113162047187BE0E72EF12CE80EF91EF0924102F8
S1131630E09240020E94A10200271127A80197010D
S11316400E945E03CFBE1F910F91FF90EF90DF9039
S1131650CF9008951F93CF93DF938FB7F894C82F3B
S1131660DD271C2F80911801909119010897C9F466
S113167089E00E94300683E00E944007C09A81E01E
S113168090E090931901809318018FB7F8949927EB
S113169023E0209312018FBF84E00E943D01CFBF5D
S11316A030C0C09880914602882311F085E001C0C3
S11316B084E00E94300683FD09C080E00E94300669
S11316C083FF04C085E090E020E003C083E090E065
S11316D021E09093190180931801C09A1FBF22231F
S11316E041F01092220183E00E9440070E94000B07
S11316F008C00E94A10220E431E040E050E00E94D2
S11317005E03DF91CF911F91089578941F920F92F9
S11317100FB60F9211241F932F933F934F935F9310
S11317206F937F938F939F93AF93BF93EF93FF93A5
S113173087B78F7E87BF78941FB7F8948091620132
S113174090916301A0916401B09165010097A10596
S1131750B10509F051C080911801909119018530AB
S1131760910561F18630910530F48330910549F09B
S1131770049781F51AC087309105F1F0089751F567
S113178014C0869B0FC084E090E09093190180936D
S113179018010E94A10227E030E040E050E00E94DE
S11317A05E0318C00E94000B15C00E942106882306
S11317B089F40E942A0B0EC080E00AC089E00E94CE
S11317C0300681E00E94BA0383E00E94400787E06C
S11317D00E94B10A8091130190911401019771F450
S11317E082E090E09093140180931301DE98DE9AD6
S11317F080E00E94C90502C00E94BE02812F992781
S11318008FBFFF91EF91BF91AF919F918F917F9186
S11318106F915F914F913F912F911F910F900FBE48
S11318200F901F901895EF92FF920F931F93CF93F1
S1131830DF938B0180916F019091700186FF40C10D
S11318408F7B8F3309F08EC1C0911E01D0911F018F
S1131850588150934C0180914A0190914B018530FD
S1131860910509F443C08630910509F48AC00297B2
S113187009F01FC185E090E090934B0180934A01E9
S113188040913901852F99270196242F3327281752
S113189039074CF1B79906C00E9904C0451B415055
S11318A04093390140914C014A32E8F44423A1F0B9
S11318B0BE016F5F7F4F483018F047E050E007C02B
S11318C086E090E090934B0180934A01552780E095
S11318D090E00E94DE0146C110925401C09A84E057
S11318E00E944007E3C00E94C3073CC186E090E029
S11318F090934B0180934A0180915901882309F404
S113190039C08091D0018823A9F5898185FF32C02F
S11319108F814E812FB7F894332760916B017091BA
S11319206C012FBF9927982F88275527842B952B37
S11319308617970759F08F812E819927982F88272A
S11319403327822B932B8F5F9F4FA1F4898187705C
S1131950813081F4C09AC0988AE00E943006C09A0F
S1131960C09840914C0147502896BE018FE30E94D5
S11319704B06F8C040914C01475055272896BE01AC
S1131980A6CFC09A80915001882339F484E00E9444
S1131990400780915001882311F0B7990AC00E9B2B
S11319A008C090913402992321F080914C018B302E
S11319B038F480911E0190911F010E9412023DC0D3
S11319C0913001F5E0913802FF27EE0FFF1FEE0F73
S11319D0FF1FE052FE4F2081318142815381E0910B
S11319E01E01F0911F0121ABBB27A52F942F832F3C
S11319F080ABCA01AA27BB2787A7252F33274427F3
S1131A00552726A7809138029927019668E070E04F
S1131A100E945B1880933802809134028150809335
S1131A203402882351F080911E0190911F010E947D
S1131A301202109238021092340280914C01FE017D
S1131A40E80FF11D808187FF31C0012B79F1698195
S1131A506770E0911E01F0911F01623019F5A091A9
S1131A605A01B0915B01109709F18091180190918E
S1131A7019010797D9F4ED019B8183819817B1F47B
S1131A8087B78F7E87BF908181E08CA7E90FF11D16
S1131A908291319688A780818F7789A780E00E9400
S1131AA0B10A04C0613011F48BE02AC00E948E0791
S1131AB059C010925401C09A84E00E94400752C059
S1131AC08E3309F04FC0C09A80911801909119018A
S1131AD00897C9F4C09889E00E943006C09A83E050
S1131AE00E94400781E090E09093190180931801CF
S1131AF08FB7F894992723E0209312018FBF84E0D5
S1131B000E943D012FC080914602882349F484E05D
S1131B1090E090931901809318010E942A0B22C02F
S1131B2083E00E94400783E090E090931901809342
S1131B3018010E942102DC01CB0166E371E00E94DE
S1131B404718EBE0EE2EF12CE80EF91EF09234016A
S1131B50E09233010E94A10200271127A8019701F6
S1131B600E945E03DF91CF911F910F91FF90EF9040
S1131B7008951F920F920FB60F9211242F933F9343
S1131B804F935F936F937F938F939F93AF93BF9381
S1131B90EF93FF932FB1E0919001F0919101309771
S1131BA039F08091780190917901E80FF91F208331
S1131BB080917801909179010196909379018093B5
S1131BC0780180E00E94E5004091200150912101BC
S1131BD080917801909179018417950718F40E94F7
S1131BE070011CC0609190017091910180913E023E
S1131BF090913F02109291011092900110923F0235
S1131C0010923E021092210110922001109279014B
S1131C10109278012FB120E00E94130CFF91EF91F4
S1131C20BF91AF919F918F917F916F915F914F91F0
S1131C303F912F910F900FBE0F901F901895AF9268
S1131C40BF92CF92DF92EF92FF920F931F93CF93A5
S1131C50DF93CDB7DEB7A8970FB6F894DEBF0FBEFB
S1131C60CDBF873009F4A9C1883098F4833009F4D2
S1131C702BC1843038F4813009F45BC0823008F021
S1131C80D8C024C0853009F477C1863008F08FC1EC
S1131C9022C18B3009F4BEC28C3038F4893009F487
S1131CA082C28A3008F0A2C2C1C18D3039F08D30B1
S1131CB008F45DC48E3009F0B5C4A3C48091390220
S1131CC0882309F4AFC440E051E07AC480914D0107
S1131CD0882361F52091DC013091DD014091DE0122
S1131CE05091DF01EFB7F894FF276091C70170911D
S1131CF0C8018091C9019091CA01E0903501F0902A
S1131D00360100913701109138016E0D7F1D801F3F
S1131D10911FEFBF2093DC013093DD014093DE017E
S1131D205093DF0110924D010E9477040E94CD036D
S1131D306DC00E94CD035B016C018FB7F8949927A5
S1131D40109277018FBF8091860181FF25C0809119
S1131D507E0190917F01A0918001B0918101A60143
S1131D609501281B390B4A0B5B0BE0908201F09024
S1131D7083010091840110918501E21AF30A040B96
S1131D80150B3FEFE3163FEFF3063FEF03073FE783
S1131D90130711F061E009C05FEFE52E5FEFF52E48
S1131DA05FEF052F5FE7152F60E080918F0181FFC2
S1131DB021C08091870190918801A0918901B091FF
S1131DC08A01A6019501281B390B4A0B5B0BDA012A
S1131DD0C90120918B0130918C0140918D0150916A
S1131DE08E01281B390B4A0B5B0B2E153F05400750
S1131DF051072CF0662309F415C4A80197011216A3
S1131E001306140615062CF0C601B5010E94F2094A
S1131E1009C42093DC013093DD014093DE0150932B
S1131E20DF0181E080934D01C601B5010E94770472
S1131E30F9C30FB7F894112781E00E94BA0341E077
S1131E40E42EF12CF0921901E092180110921A017B
S1131E5010923A0110924E010FBF0FB7F894112758
S1131E600E940602F0924B01E0924A011092540142
S1131E7089B78F7B89BF80E488BF8AB780628ABFB5
S1131E808AB78F7E8ABF89B7806489BF0FBF8FB737
S1131E90F894082F1127809113019091140104974D
S1131EA019F483E00E9430060FBF0FB7F89411278E
S1131EB0C09A80E00E9440070FBF8FB7F89499271B
S1131EC022E02093CC0105C08FB7F8949927109293
S1131ED0CC018FBFA7C38FB7F8949927F090120154
S1131EE08FBF63E081E00E94CE00882359F10FB7D1
S1131EF0F8941127109219011092180187B78F7E58
S1131F0087BF87B78F7D87BF83E00E944007C09A51
S1131F100FBF0FB7F894112710924B0110924A018A
S1131F200E940602C09A89B78F7B89BF0FBF1092A7
S1131F30140110921301DE98DD98DE9A83E00E946A
S1131F403D0107C08FB7F894992722E02093CC0174
S1131F508FBF00917501109176010E94FF0180915D
S1131F603A0290913B02892B09F05CC38FEF809376
S1131F7009014F2DB8011BC38FB7F894282F3327BD
S1131F80122F80914202882301F581E0809342025E
S1131F908091130190911401049721F481E00E942F
S1131FA0C90503C086E00E943D011FBF3BC38FB734
S1131FB0F8949927109242028CCF8FB7F894282F67
S1131FC0332780911501882311F02FBF2BC32FBF16
S1131FD080B3992736E0969587953A95E1F7182FBF
S1131FE0117090916D0180916E018917D9F01917C4
S1131FF0C9F484E090E090931401809313018FB7A7
S1132000F894992721E0209315018FBF60E070E0D8
S11320108DE10E94D4070E944E05C09AC09882E0C8
S11320200E943D0110936E0187E06DC08FB7F89454
S11320309927109102018FBF123009F467C0133041
S113204030F4112359F0113009F0ECC248C01330B8
S113205009F476C0143009F0E5C2A2C0C0988FB765
S1132060F894082F1127809113019091140102977D
S1132070A1F583E090E0909314018093130168E14B
S113208070E08DE10E94D40781E080936D0110928D
S1132090150180B3992726E0969587952A95E1F74F
S11320A08170907080936E0187E00E943D0181E011
S11320B00E9430066FE772E08CE10E94D4070E9410
S11320C035080E94FB0766E57AE287E10E94D4079F
S11320D06FEF70E885E10E94D4070FBFA3C2C098D8
S11320E086E00E9430060E9435080E94FB070E9489
S11320F04E05C09AC09883E00E943006C09A81E0E1
S11321000E94400786E00E943D018CC2C0988FB7B0
S1132110F894082F112760E080E00E94CE00882305
S113212011F00FBF0AC00FBF83E50E94640180E075
S11321300E94640180E00E946401C09A82E02DC084
S11321408FB7F8949927209118018FBF243039F064
S1132150283041F0223001F50E94460863C20E94F3
S11321602A0B60C2C09889E00E943006C09A83E0BE
S11321700E9440078FB7F894992721E030E030930C
S11321801901209318018FBF8FB7F89499271093E2
S113219012018FBF84E0B7CF83E00E94400742C2A0
S11321A00E947D063FC20FB7F89411274091200189
S11321B050912101609190017091910180913E02B2
S11321C090913F02109291011092900110923F025F
S11321D010923E0210922101109220011092790176
S11321E01092780120E00E94130C77CF2FB7F89457
S11321F03327809151018093050182E08093170178
S11322002FBF80910501882309F00CC2B89AC098A9
S113221088E079CFA0911E01B0911F01DC909D014F
S11322202D0D311DF9018081881F8827881FFD012C
S113223083A7F90180818F77FD0181A72150304068
S1132240F9018081FD0180A7A0911E01B0911F01B9
S1132250FD0132818FB7F894992720914F018FBFE8
S1132260222309F490C0832F9927969587959695F4
S11322708795837090708230910541F587814681FE
S11322802FB7F894332760916B0170916C012FBFC5
S11322909927982F88275527842B952B86179707DE
S11322A019F481E090E06CC0FD018781268140E053
S11322B050E09927982F88273327822B932B8F5F01
S11322C09F4F11F441E050E0CA015AC0039709F04E
S11322D045C19E012F5F3F4F41ED51E088E0FA0177
S11322E00190AF01F90101929F018150C1F79E0154
S11322F02F5D3F4FAE014F5F5F4F88E0FA010190C1
S1132300AF01F90101929F018150C1F79E01275F3E
S11323103F4FAE014F5D5F4F88E0FA010190AF017E
S1132320F90101929F018150C1F79E012F5E3F4F39
S1132330AE01475F5F4F88E0FA010190AF01F901F8
S113234001929F018150C1F79E01275E3F4FAE016C
S11323504F5E5F4F88E0FA010190AF01F9010192ED
S11323609F018150C1F748E050E0BE01675E7F4F96
S1132370CD0106960E94C418892B09F0EFC003C052
S1132380882309F4EBC0FCE0FD1508F0E7C0E090F9
S11323901E01F0901F01F7012281822F9927F6E098
S11323A096958795FA95E1F7039719F468E070E03C
S11323B002C062E070E0822F9927969587959695E2
S11323C0879583709070039719F488E090E002C0B9
S11323D082E090E026E030E0E20EF31E40E050E0C0
S11323E020E030E0F701E80FF91F8AEF9FEFE80ED5
S11323F0F91E05C08191480F511D2F5F3F4F2617CD
S11324003707C4F3F70163818FEF80933C028FB7E2
S1132410F894782F20E030E0E7E2F1E080819181C8
S11324208417950731F48281861709F490C02093AC
S11324303C022F5F3F4F33962430310579F77FBF3D
S113244090913C023FB7F8949F3F21F080911B018B
S1132450891799F420911B01822F9927FC01EE0F13
S1132460FF1FE80FF91FE95DFE4F5183408362832C
S11324702F5F237020931B010CC0892F9927FC0127
S1132480EE0FFF1FE80FF91FE95DFE4F51834083F4
S11324906283832F99278FBF0FB7F8941127C70141
S11324A00E947000FC0190810FBFF70183A588236F
S11324B009F450C09F3309F04DC0878146812FB77E
S11324C0F894332760910601709107012FBF992773
S11324D0982F88275527842B952B8617970759F013
S11324E0878126819927982F88273327822B932B3E
S11324F08F5F9F4F79F5F7018385863059F5F9E1B0
S1132500DF16C9F4F70180898130A9F4D99881894B
S11325108093610187898093100186852785992797
S1132520982F88273327822B932B019721F4D9984E
S113253082898093110180911001813051F480913E
S11325401101882331F0813029F4DA9803C07FBF68
S113255001C0DA9AF0921F01E0921E018FB7F8943D
S11325609927109254018FBF0E948E075BC09091EF
S1132570600180910901981709F454C090930901EE
S11325809923D1F400911C0110911D0160917301F4
S1132590C8010E948C08482F5527442309F442C0DF
S11325A08FEF8093090160911C0170911D01F80166
S11325B083850E94A20A36C08FEF8093090132C03E
S11325C090913902852F8923B9F0E42FFF27EE0F6C
S11325D0FF1FE658FE4F2081318111821082852F22
S11325E08095982390933902442331F42259314041
S11325F0B1F410920E0113C04F5F483098F4550F98
S1132600DFCF80910C01E82FFF27EE0FFF1FE65864
S1132610FE4F6081718141E00E94640A03C0550F3E
S113262041E0CECFA8960FB6F894DEBF0FBECDBF63
S1132630DF91CF911F910F91FF90EF90DF90CF909A
S1132640BF90AF900895809135028F3FB1F0282F4D
S11326503327F901E55CFE4F8081809335028F3F7B
S113266011F4809343028FEF80832F3F31F0822F48
S11326700E941F0E81E090E0089580E090E00895AC
S11326801F93CF93DF93CDB7DEB7E0970FB6F894DF
S1132690DEBF0FBECDBF1FB7F8944FE050E06FEF21
S11326A070E08BE391E00E94D1188FEF80933502A4
S11326B08093430281E08EBD88E080BF83E083BFC6
S11326C08CB59DB54AE72CB53DB52817390708F4F4
S11326D04150442311F0C901F6CF92B782B789174C
S11326E0E9F32CB53DB592B782B78917E9F38CB5F8
S11326F09DB5821B930B409665E0969587956A95E8
S1132700E1F7909337028093360213BE83B78EBDF0
S11327108EB580BF12BE1DBC1CBC8FEF86BF86B7B2
S113272080937C0080B7992787709070892BD1F7AC
S1132730D29AD19AD09ADA9AD99AD89A15BA8FEFAE
S113274084BBD498DC981DBC1CBC87B7846087BF4D
S11327508EB5887F84608EBD0E9423138823E1F7A1
S11327608FEF80935201E7E2F1E08FEF9FEF9183C7
S113277080831282339621E0E333F207C1F70E948B
S113278021026093DB018091000190910101019687
S1132790AA27BB2780935C0190935D01A0935E01FF
S11327A0B0935F0180E092E090931F0180931E013B
S11327B08E98B89A8C988FEF809366011092CB0113
S11327C01092CC011092CD011092CE01B89AD69AF3
S11327D0D59A8FB7F8949927209106013091070173
S11327E08FBF30936C0120936B010E94910429A741
S11327F03AA74BA75CA76DA77EA78FA798ABDE016E
S11328009196FE01B99688E001900D928150E1F70E
S1132810DE015196FE01B19688E001900D9281503F
S1132820E1F7DE015996FE01719688E001900D9260
S11328308150E1F7A1EDB1E0FE01799688E00190C5
S11328400D928150E1F780910801992790935801E6
S1132850809357018FE18093C6018AE18093D90167
S11328600E94910429A73AA74BA75CA76DA77EA74E
S11328708FA798ABDE019196FE01B99688E001908E
S11328800D928150E1F7DE011196FE01B19688E0C8
S113289001900D928150E1F7DE011996FE01319607
S11328A088E001900D928150E1F7A1EDB1E0FE01C5
S11328B0399688E001900D928150E1F7A1EDB1E0E5
S11328C0FD0137969C9180818D939083319781E0AF
S11328D0E43DF807B9F781E080934F0110923D027F
S11328E0809359011092D00180B7886080BF8BE03B
S11328F083BF86EE81BF87B7826087BF0E94F403DF
S11329000E9423138823E1F7812F99278FBF78949E
S113291089E190E09093450280934402A0980E943C
S1132920CD0360937E0170937F0180938001909327
S1132930810189E190E0A0E0B0E08093820190936E
S11329408301A0938401B0938501809186018E7FD9
S113295082608093860181E00E943D010E94C80A42
S1132960DA988FB7F894482F55274BC087B7992723
S113297083709070892B19F4E5E0F0E013C080B700
S1132980992787709070892BD1F781B792B7891BEB
S11329908C3030F082B7853F18F4E3E0F0E002C0F9
S11329A0E2E0F0E087B7887BC1F480917D008B7F03
S11329B0A1F46E9912C08AB190919A00892B887102
S11329C061F48091740082FD08C0379B03C081E0EC
S11329D090E005C085E090E002C080E090E025B77B
S11329E08E1708F4E82FFF27E457FF4FE491237E66
S11329F02062E22BE5BF78948895F89485B78F7DA3
S1132A0085BF809135028F3F09F4B0CF282F33273B
S1132A10F901E55CFE4F8081809335028F3F11F40C
S1132A20809343028FEF80832F3F09F49FCF4FBFE2
S1132A30822F0E941F0E95CF78941F920F920FB68B
S1132A400F9211242F923F924F925F926F927F9236
S1132A508F929F92AF92BF92CF92DF92EF92FF92AA
S1132A600F931F932F933F934F935F936F937F9392
S1132A708F939F93AF93BF93CF93DF93EF93FF9382
S1132A80C6B5D7B58FB7F894282E0E94A1029B0132
S1132A902C1B3D0B442755272B013C01421A530A9A
S1132AA0640A750A80911801909119018530910585
S1132AB021F0069709F0E0C0BFC086E090E0909353
S1132AC019018093180131E0332E30925301109292
S1132AD01A0180E00E94BA03E0915A01F0915B016F
S1132AE041AABB27A72D962D852D80ABC301AA270C
S1132AF0BB2787A7872D9927AA27BB2786A7E091FD
S1132B005A01F0915B0185A5882309F484C0608192
S1132B10655077274F01860E971EF4012081E180CE
S1132B208281A3809927AA27BB27BA2FA92F982F80
S1132B308827332744275527522F44273327222712
S1132B40FF24002711278701FF24EE242E293F2983
S1132B50402B512BBB24CC24DD242A293B294C298E
S1132B605D29822B932BA42BB52B84199509A609D7
S1132B70B7098383292F3A2F4B2F552722839D0191
S1132B804427552721838B2F9927AA27BB27808386
S1132B90C09824E0A40180E090E00E947903C09AE8
S1132BA0F4012081E1808281A3809927AA27BB2791
S1132BB0BA2FA92F982F8827332744275527522F18
S1132BC0442733272227FF24002711278701FF24C6
S1132BD0EE242E293F29402B512BBB24CC24DD2469
S1132BE02A293B294C295D29822B932BA42BB52B15
S1132BF0840D951DA61DB71D8383292F3A2F4B2FB6
S1132C00552722839D014427552721838B2F9927FC
S1132C10AA27BB278083E0915A01F0915B0181814F
S1132C2085FF02C030923A0183E00E94400787B7D3
S1132C308F7E87BF84997AC01092530181E00E94ED
S1132C40BA03E0915A01F0915B01818185FF0FC0C5
S1132C5087E090E090931901809318010E94A102EB
S1132C6020E031E040E050E00E945E0303C080E0D9
S1132C700E94B10A849B5AC080911A01882391F55D
S1132C8080915301882371F511E0109353010E9440
S1132C90BA0380B320913402283098F4E0913802CA
S1132CA0E20FFF27E770F070EE0FFF1FEE0FFF1F1C
S1132CB0E052FE4F40825182628273822F5F2093E2
S1132CC0340210931A01D0937201C0937101849954
S1132CD02DC0992774E0969587957A95E1F7182F7A
S1132CE0117001C010E0809153018130F9F4109209
S1132CF053010E94BA0310921A011123B9F480916E
S1132D00710190917201C81BD90B2A9778F48091B4
S1132D103402882319F081508093340280915A013F
S1132D2090915B01009711F00E9412022FBEFF9157
S1132D30EF91DF91CF91BF91AF919F918F917F914F
S1132D406F915F914F913F912F911F910F91FF9040
S1132D50EF90DF90CF90BF90AF909F908F907F9037
S1132D606F905F904F903F902F900F900FBE0F90F9
S1132D701F901895ACE2B0E0E0ECF6E10C948D18ED
S1132D80222E332E442E552E662E772E882E992EE3
S1132D90FE013196A8E01192AA95E9F729823A82B8
S1132DA04B825C826D827E828F829886FE01399688
S1132DB0B8E01192BA95E9F7A986BA86CB86DC8683
S1132DC0ED86FE860F87188B89819A81AB81BC8141
S1132DD089A79AA7ABA7BCA77C018D018FEF9FEFB2
S1132DE0A0E0B0E0E822F9220A231B2389A59AA5D2
S1132DF0ABA5BCA51D014424552489859A85AB85C2
S1132E00BC858DA39EA3AFA3B8A75C016D018FEF12
S1132E109FEFA0E0B0E0A822B922CA22DB228DA154
S1132E209EA1AFA1B8A53D0188249924C801B7018A
S1132E30A60195010E946E1869A37AA38BA39CA393
S1132E40C801B701A40193010E946E187B018C0193
S1132E50C201B101A60195010E946E185B016C01CB
S1132E60C201B101A40193010E946E183B014C01FF
S1132E70EA0CFB1C0C1D1D1D89A19AA1ABA1BCA1D0
S1132E809D01442755272E0D3F1D401F511F2A1514
S1132E903B054C055D0540F480E090E0A1E0B0E026
S1132EA0680E791E8A1E9B1ECA01AA27BB27860D9F
S1132EB0971DA81DB91D8D8F9E8FAF8FB8A3A90133
S1132EC03327222789A19AA1ABA1BCA1A070B0701D
S1132ED0280F391F4A1F5B1F298F3A8F4B8F5C8F36
S1132EE0A98CBA8CCB8CDC8CED8CFE8C0F8D18A14C
S1132EF0FE01719698E011929A95E9F7ED8AFE8A9F
S1132F000F8B188F2D813E814F8158856DA17EA135
S1132F108FA198A50E946E183B014C012D853E851A
S1132F204F85588969A57AA58BA59CA50E946E1822
S1132F302D893E894F89588D260F371F481F591FE9
S1132F40260D371D481D591D2D8B3E8B4F8B588FD9
S1132F506D887E888F88988C2A2D3B2D4C2D5D2D75
S1132F60662D772D882D992DE2E1AC960C94A91845
S1132F70A0E1B0E0EEEBF7E10C948D18222E332E95
S1132F80442E552E662E772E882E992E002309F472
S1132F9066C088E0FE01319611928A95E9F729838B
S1132FA03A834B835C836D837E838F829887E0E2D0
S1132FB0E01B1E16CCF52D813E814F815885602F74
S1132FC0772767FD7095DA01C901062E04C0B6950E
S1132FD0A795979587950A94D2F78D879E87AF8793
S1132FE0B88B04C0220F331F441F551FEA95D2F734
S1132FF089819A81AB81BC8104C0B695A7959795C8
S113300087956A95D2F7282B392B4A2B5B2B298776
S11330103A874B875C8729843A844B845C846D842B
S11330207E848F8498881BC01D861E861F86188AFE
S11330302E2F332727FD3095309521953F4F8D81D5
S11330409E81AF81B88504C0B695A795979587955D
S11330502A95D2F789879A87AB87BC87DCCF222D44
S1133060332D442D552D662D772D882D992DE2E194
S113307060960C94A918991B79E004C0991F9617BF
S113308008F0961B881F7A95C9F780950895AA1BA6
S1133090BB1B51E107C0AA1FBB1FA617B70710F03F
S11330A0A61BB70B881F991F5A95A9F78095909571
S11330B0BC01CD01089597FB092E07260AD077FDA0
S11330C004D0E5DF06D000201AF4709561957F4F97
S11330D00895F6F7909581959F4F0895629FD001CA
S11330E0739FF001829FE00DF11D649FE00DF11DBF
S11330F0929FF00D839FF00D749FF00D659FF00D6E
S11331009927729FB00DE11DF91F639FB00DE11D5A
S1133110F91FBD01CF01112408952F923F924F92C0
S11331205F926F927F928F929F92AF92BF92CF9253
S1133130DF92EF92FF920F931F93CF93DF93CDB75C
S1133140DEB7CA1BDB0B0FB6F894DEBF0FBECDBFD4
S113315009942A88398848885F846E847D848C84A5
S11331609B84AA84B984C884DF80EE80FD800C81AE
S11331701B81AA81B981CE0FD11D0FB6F894DEBF91
S11331800FBECDBFED010895FB01DC0104C08D919C
S11331900190801921F441505040C8F7881B990BC5
S11331A00895DC0101C06D9341505040E0F708954B
S10531B0FFCF4B
S11131B20100FFFFFFFF010022FFFFFF0100ED
S9030000FC
