S01800006275696C642F6D6963617A2F6D61696E2E73726563E5
S11300000C945C000C9488050C9492050C949C054B
S11300100C94A6050C94B0050C94BA050C94D7075F
S11300200C94C4050C947B000C947B000C94660F18
S11300300C9404110C94DF050C94F5050C9415062E
S11300400C94CE050C94000F0C947B000C947B0054
S11300500C947B000C947B000C947B000C947B0030
S11300600C94EA050C947B000C947B000C947B00AC
S11300700C947B000C947B000C947B000C947B0010
S11300800C947B000C94B80B0C947B00F211481276
S11300907B12D312DF12E212F512401346139713A8
S11300A0B313B913F113AC14D014E6142517EA11E1
S11300B06F1700081C18141011241FBECFEFD0E1D5
S11300C0DEBFCDBF11E0A0E0B1E0ECE0F7E300E07B
S11300D00BBF02C007900D92A431B107D9F712E00B
S11300E0A4E1B1E001C01D92A836B107E1F70E9476
S11300F0AE170C94851B0C9400008FB7F8949927C5
S113010008958FBF0895FC0182819927582F4427B1
S113011081819927482B592BCA01892F99278695C4
S11301208695837090708230910559F083309105E3
S113013059F0892B19F420E030E008C02CE93FEF96
S113014005C022E030E002C028E030E0CA0184E0CB
S1130150989F812D992711248230910559F083307D
S1130160910559F0892B19F480E090E008C08CE9DE
S11301709FEF05C082E090E002C088E090E0280F85
S1130180391F2A5F3F4FCF01820F931F0895282FF5
S11301909FB7F894662349F0E82FFF27EA54FE4FEF
S11301A08081882311F021E006C0E22FFF27EA5462
S11301B0FE4F608320E0892F99278FBF822F9927D4
S11301C00895E82F8FB7F894282F332790E0FF275E
S11301D0EA54FE4F8081861709F491E02FBF892FDE
S11301E099270895882311F06E9A08956E980895BA
S11301F0882311F06F9A08956F98089580E00E9403
S1130200F200BA9ABB98B99AB89A6C9A80E00E94A4
S1130210F8006B986A9881E00E94F200709A8DB1A0
S11302208C7F8DB908950F931F93CF93DF93182F6D
S11302308FB7F894C82FDD270C2F61E080E00E946F
S1130240C700882321F0CFBF85E090E024C08091CF
S11302500C018823A1F480912301823081F409C028
S113026082E08093230110920C010E94FE00B89A50
S1130270C0981093090180E00FBF99270CC08091AA
S11302802301882369F38FB7F89499271092B60154
S11302908FBF81E0F1CFDF91CF911F910F9108952E
S11302A0282F9FB7F894E82FFF27E85BFE4F808143
S11302B08F3F81F4E0916502E21771F40BC0209343
S11302C0220204C0FF27E85BFE4F208320936502CF
S11302D020E007C025E005C0809122028F3F91F7FE
S11302E0EECF892F99278FBF822F992708951F93C7
S11302F0182F81E00E94F2001FB9779BFECF8FB1C7
S113030099271F9108958F929F92AF92BF92CF9297
S1130310DF92EF92FF920F931F93CF93DF938FB7E8
S1130320F8949927C0902C02D0902D028090AE01B1
S11303309090AF01C0918D01D0918E0120912C013C
S113034030912D01EAE0AE2EB12CAC0EBD1E2A1563
S11303503B0508F459018FBF7401EC0EFD1E8601A4
S11303600C0F1D1F14C0C114D10419F0F8018081B1
S113037001C080E00E9477018114910411F0F7011B
S1130380808321960894E11CF11C0F5F1F4FC50167
S11303900197C817D90738F381E00E94F8009FB786
S11303A0F894C114D10431F0CC0EDD1EF601808125
S11303B08FB901C01FB8D0938E01C0938D01892FCE
S11303C099278FBF80E090E0DF91CF911F910F912B
S11303D0FF90EF90DF90CF90BF90AF909F908F9061
S11303E008952FB7F894332750932D0140932C018F
S11303F090932D0280932C027093AF016093AE0111
S113040010928E0110928D012FBF452B29F08FB1D0
S11304100E948301992708958DE00E94500180E095
S113042090E008958FB7F89499271092B8018FBF80
S113043008957FB7F89462B720913001309131016B
S1130440409132015091330106B601FE0FC081B7CD
S113045092B7280F311D411D511D2F5F3F4F4F4F44
S11304605F4F290F311D411D511D04C0260F311D41
S1130470411D511D872F99278FBFCA01B9010895C6
S1130480DF92EF92FF920F931F93D82E7A018B0184
S11304900E94190229E0D29EF0011124ED56FE4F6C
S11304A06083718382839383E482F5820683178356
S11304B080858360808782E00E9450011F910F91A4
S11304C0FF90EF90DF900895EF92FF920F931F93A8
S11304D0CF93DF93182F7B01042F8FB7F894C82F85
S11304E0DD2760E080E00E94E100882321F0CFBF97
S11304F080E090E014C0CFBF1064812F99279093BF
S11305008501809384010E947701182F402F55277D
S1130510B70180E090E00E94F101812F9927DF91DB
S1130520CF911F910F91FF90EF90089580E88093F1
S11305304601109269011092250210922102109234
S113054063010895CF93DF93FC0115A6DC019E9609
S1130550ED011B821A82198280E886A7DF91CF9170
S113056008952F923F924F925F926F927F928F9253
S11305709F92AF92BF92CF92DF92EF92FF920F932E
S11305801F93CF93DF93CDB7DEB728970FB6F894B8
S1130590DEBF0FBECDBF209072013090730140903A
S11305A0740150907501662477248824BEE4AB2E30
S11305B0A3E8BA2ECC24DD24EE24FF2400E010E0CE
S11305C0222D332D442D552D662D772D882D90E029
S11305D00E94671929833A834B835C836D837E83EE
S11305E08F839887822E932EA42EB52E2401350155
S11305F000E20E94651AA22EB32EC42ED52EC3018A
S1130600B20196958795779567956A0D7B1D8C1D2C
S11306109D1D97FF05C09F776F5F7F4F8F4F9F4F43
S113062060937201709373018093740190937501C8
S113063028960FB6F894DEBF0FBECDBFDF91CF91E1
S11306401F910F91FF90EF90DF90CF90BF90AF90EC
S11306509F908F907F906F905F904F903F902F90DE
S113066008958FB7F89460919101709192012CB51F
S11306703DB506B602FE04C06F5F7F4F2CB53DB595
S113068099278FBF88279927CB0177276627442787
S11306905527622B732B842B952B0895EF92FF9291
S11306A00F931F930E9431037B018C0120917C01E5
S11306B030917D0140917E0150917F0180917701BD
S11306C090917801A0917901B0917A01820F931FE2
S11306D0A41FB51FE216F3060407150730F08217AE
S11306E09307A407B50758F005C082179307A4071A
S11306F0B507E0F5E816F9060A071B07B8F59C01EB
S1130700AD012E193F09400B510B213060E836072B
S113071060E0460760E0560768F180E090E8A0E0FA
S1130720B0E0E80EF91E0A1F1B1FE0927C01F09254
S11307307D0100937E0110937F0180E090E8AFEF8C
S1130740BFEFE80EF91E0A1F1B1F2050304840401F
S1130750504020937701309378014093790150936E
S11307607A0120E030E840E050E014C020E030E0BE
S113077040E050E080937C0190937D01A0937E0142
S1130780B0937F0110927701109278011092790151
S113079010927A01A901B7012CB53DB5C9018E1992
S11307A09F0903968417950720F0B9016D5F7F4F69
S11307B002C0640F751F6115710511F461E070E0EA
S11307C0615070407BBD6ABD80E186BF87B78061A0
S11307D087BF1F910F91FF90EF9008950F931F9380
S11307E00FB7F894112760937C0170937D01809377
S11307F07E0190937F012093770130937801409399
S1130800790150937A010E944E030FBF1F910F91FB
S1130810089597B79F7D97BF90E296BF882319F0FC
S11308208EB5806402C08EB58F7B8EBD87B7806223
S113083087BF80E090E008958FB7F89499272091BE
S113084074002093B0018FBF08951F93CF93DF935B
S113085089B78F7789BFA39AAB9AA69AAE98AE9AB6
S11308608091040110926001809361018FB7F89424
S1130870282F3327922F80911701882309F044C031
S113088011E0109317011092C4012FBF8FB7F89491
S1130890C82FDD27809118018823C9F4909A919A72
S11308A0889889981092710081E480937000109266
S11308B07200109274000E941C048091B001846044
S11308C08E7F8093B0018093740010931801CFBF82
S11308D08FB7F894C82FDD279C2F809107018130B2
S11308E059F580911701813021F480E00E94500174
S11308F009C0823009F58091C4018093070183E027
S113090080931701CFBF1FC08091C401882311F4C5
S11309102FBF19C080917B018F3F71F4E0910601D4
S1130920EE2351F00BC01092050104C0FF27E558D7
S1130930FE4F1082109206019FBF05C080910501F1
S11309408F3FA1F7F0CF40EB54E060E070E080E02F
S11309500E94400280E090E0DF91CF911F910895C2
S1130960DF92EF92FF920F931F938FB7F894282F83
S11309703327D22E91B782B746B7981711F041FFAB
S113098002C02FBF6AC080918C018823E1F10E94CC
S11309901902E090B201F090B3010091B4011091FA
S11309A0B50120914201309143014091440150919D
S11309B045016E197F09800B910B62177307840739
S11309C0950720F010928C0171E01EC02E0D3F1D82
S11309D0401F511F8091300190913101A09132014B
S11309E0B0913301281B390B4A0B5B0B273E3105B1
S11309F04105510540F4822F223010F070E005C00B
S1130A0070E082E002C070E086EE682F615000B6AC
S1130A1001FCFDCF82B7681709F46F5F20913001A4
S1130A20309131014091320150913301DA01C90111
S1130A300196A11DB11D860F911DA11DB11D821727
S1130A409307A407B50710F4622F609561BFDFBE5A
S1130A50772319F081E00E9450011F910F91FF90BC
S1130A60EF90DF900895AFB7F894BB27E1E0E093EF
S1130A708C016093B2017093B3018093B40190939D
S1130A80B5012093420130934301409344015093B4
S1130A904501AFBF0E94B00408950E941C048091D8
S1130AA0B0018E7F80698093B001809374000895B3
S1130AB0AF92BF92CF92DF92EF92FF920F931F9368
S1130AC0CF93DF93CDB7DEB728970FB6F894DEBF88
S1130AD00FBECDBF20E070E0E0910001F091010174
S1130AE032E14DE65CE46FE4809101019E2F28968B
S1130AF00FB6F894DEBF0FBECDBFDF91CF911F912B
S1130B000F91FF90EF90DF90CF90BF90AF9008953A
S1130B101F920F920FB60F9211240F900FBE0F90D9
S1130B201F9018951F920F920FB60F9211240F90D9
S1130B300FBE0F901F9018951F920F920FB60F9231
S1130B4011240F900FBE0F901F9018951F920F92B3
S1130B500FB60F9211240F900FBE0F901F9018958F
S1130B601F920F920FB60F9211240F900FBE0F9089
S1130B701F9018951F920F920FB60F9211240F9089
S1130B800FBE0F901F9018951F920F920FB60F92E1
S1130B9011240F900FBE0F901F9018951F920F9263
S1130BA00FB60F9211248F9383B783BF00B600FC56
S1130BB0FDCF8F910F900FBE0F901F9018957894D2
S1130BC01F920F920FB60F9211240F900FBE0F9029
S1130BD01F90189578941F920F920FB60F921124BC
S1130BE00F900FBE0F901F90189578941F920F923C
S1130BF00FB60F9211242F933F938F939F932FB788
S1130C00F8943327809191019091920101969093E9
S1130C109201809391012FBF9F918F913F912F91CA
S1130C200F900FBE0F901F9018951F920F920FB642
S1130C300F9211242F933F934F935F936F937F935E
S1130C408F939F93AF93BF93EF93FF9383B783BF28
S1130C5000B600FCFDCF81B799270196AA27BB27D0
S1130C602091300130913101409132015091330192
S1130C70280F391F4A1F5B1F209330013093310125
S1130C80409332015093330178940E94B004FF9151
S1130C90EF91BF91AF919F918F917F916F915F91F0
S1130CA04F913F912F910F900FBE0F901F90189569
S1130CB0C09860912A0170912B0141E08FE30E945A
S1130CC064020895982F80911701833009F047C07A
S1130CD080910701891709F042C08091050120E045
S1130CE030E08F3F11F421E030E0232BF9F48F3F03
S1130CF019F42FEF30E00EC0282F3327F901E558FF
S1130D00FE4F8081809305018F3F11F4809306018B
S1130D108FEF80832093C4018FEF8093070181E0DC
S1130D208093170180E00E94500116C081E08093F7
S1130D3007011092170180911801813069F40E9413
S1130D401C048091B0018A768093B0018093740072
S1130D50909891981092180180E090E0089581E0B5
S1130D6090E008950E941C048091B0018A7F8093D2
S1130D70B001809374000E941C048091B0018460CF
S1130D808093B0018093740081E080931801809176
S1130D901901882349F480910801882329F40E94C9
S1130DA04D0580E00E9462060895AF92BF92CF92F3
S1130DB0DF92EF92FF920F931F93CF93DF935B0128
S1130DC06C01C0E0D0E0E3E9F1E0608561FF64C05C
S1130DD02081318142815381E480F580068117812D
S1130DE0D601C501821B930BA40BB50B8E159F0571
S1130DF0A007B10708F450C060FF03C06D7F60878F
S1130E0008C02E0D3F1D401F511F20833183428394
S1130E105383CC2321F0C23009F044C03BC09FB7B8
S1130E20F89420911A01222319F421E030E00FC034
S1130E3080911B01882319F020E030E008C040E0D5
S1130E4050E02150223010F441E050E09A01892F03
S1130E5099278FBF222331F18FB7F894082F1127D8
S1130E60902F80911B01882399F480911A0181307D
S1130E7021F483E00E94500109C0823049F480913A
S1130E806C0180931B0183E080931A010FBF0AC099
S1130E909FBF08C0AA9806C021963996C330D105D1
S1130EA009F093CF82E00E945001DF91CF911F910E
S1130EB00F91FF90EF90DF90CF90BF90AF90089587
S1130EC00F931F93182F0FB7F89461E080E00E94EE
S1130ED0C700882371F51093090180910C018823C0
S1130EE0A9F580912301823089F58CE00CC00E9421
S1130EF0FE0080912301882349F481E0809323013B
S1130F00109266018EE00E9450012AC08091260250
S1130F108F3F31F5E0910B01EE2311F11CC01092CB
S1130F200A0104C0FF27EA5DFD4F108210920B01F5
S1130F3017C081E090E002C0880F991F1A95E2F76C
S1130F4020912201282B209322010AC080912301A1
S1130F508823E1F6CCCF80910A018F3F19F7DFCFC8
S1130F60802F99278FBF80E090E01F910F91089503
S1130F7082E090E090935C0180935B0181E0809338
S1130F80690120E030E080910901843011F421E00E
S1130F9030E0232B29F484E00E941301882319F400
S1130FA00E945806089584E00E94600708951F92E5
S1130FB00F920FB60F9211242F933F934F935F9389
S1130FC06F937F938F939F93AF93BF93EF93FF930D
S1130FD080915B0190915C01019749F482E090E07B
S1130FE090935C0180935B010E94B80705C08091D7
S1130FF063018F5F80936301FF91EF91BF91AF9184
S11310009F918F917F916F915F914F913F912F911C
S11310100F900FBE0F901F9018951F9383E00E94AE
S113102013019927182F882319F083E00E94600781
S1131030812F99271F910895CF92DF92EF92FF920B
S11310400F931F93CF93DF938C01F62E6A01E22E48
S11310508FB7F894C82FDD2760E080E00E94E1009C
S1131060882321F0CFBF80E090E01EC0CFBF0F0DDA
S1131070111D802F80680E947701F82E1695079520
S1131080802F807C0E9477010E2D0AC0EE2DFF2751
S1131090E01BF109EC0DFD1D80810E9477010150D8
S11310A00023A1F78F2D9927DF91CF911F910F91E5
S11310B0FF90EF90DF90CF900895CF93DF93CDB75B
S11310C0DEB72C970FB6F894DEBF0FBECDBF8FB737
S11310D0F894282FAE014F5F5F4FDA01ECEBF1E09B
S11310E088E001900D928150E1F780916A0190911E
S11310F06B018987892F99278A8780918001909134
S113110081018B87892F99278C872FBF2CE060E082
S113111080E691E00E941C082C960FB6F894DEBF7E
S11311200FBECDBFDF91CF9108951F93809122010F
S1131130882309F04BC0109109011F3F09F046C0F4
S113114060E00E94E100882309F440C081E08093BC
S1131150C601809147018823E1F11092C60185E020
S113116090E045C0923069F5C09A80910A0120E070
S113117030E08F3F11F421E030E0232BE9F41093A9
S11311800C018F3F19F42FEF30E00DC0282F3327C7
S1131190F901EA5DFD4F808180930A018F3F11F4CC
S11311A010930B0110832093660181E08093230147
S11311B08EE00E94500105C010930C01109223018F
S11311C011C080912301882369F00FC081E090E071
S11311D00EC080910C0190912301882319F2923062
S11311E021F0EFCF80E00E94F20080E090E01F91B8
S11311F008951F93CF93DF939FB7F894C92FDD27EA
S11312001C2F90910901981721F0CFBF81E090E045
S11312103AC08FEF80930901309122013323F1F416
S11312208FB7F89499271092B6018FBF0E94950842
S1131230CFBF11C02093090181E090E002C0880F64
S1131240991F4A95E2F780953823309322018CE068
S11312500E9450011FBF80E090E015C080E065E06F
S1131260E32FFF270E94E81A292F492F5527CF0182
S1131270042E02C0959587950A94E2F780FDDACF93
S1131280822F8F5FEFCFDF91CF911F9108951F932E
S1131290CF93DF938FB7F894C82FDD271C2F80914D
S11312A05B0190915C01892B29F484E00E94F90888
S11312B0CFBF1EC01092690180916301882311F091
S11312C0B79904C00E9908C0882319F081508093FF
S11312D063010E94B8070BC081E090E090935C0129
S11312E080935B011092630184E00E94F9081FBFA0
S11312F0DF91CF911F910895FF920F931F93CF9386
S1131300DF93F82E8B018FB7F894C82FDD2760E0A8
S113131080E00E94E100882321F0CFBF80E090E0CC
S11313200CC0CFBF8F2D0E947701812F99270E9477
S11313307701802F0E9477019927DF91CF911F9128
S11313400F91FF9008951F931FB7F8948091620145
S1131350882319F460E070E009C060E080912B02FA
S1131360882309F461E081E06827772780916D0183
S1131370882319F480E090E00AC090E08091BB01DA
S1131380882309F491E081E09827892F9927762F03
S11313906627770F770F770FF4E0880F991FFA9578
S11313A0E1F7826E9262682B792B81E10E947C09BD
S11313B0812F99278FBF1F9108958FB7F89499278C
S11313C06091C5018FBF85E0689FB0011124625D03
S11313D07E4F706488E10E947C090895EF92FF9229
S11313E01F93CF93DF93E0906E01F0906F01F701AC
S11313F082A59927182F882309F41FE1C0988091AA
S11314005F01811749F0612F77276F717070606EEB
S1131410706885E10E947C0910935F01F7011081D7
S11314208FB7F894C82FDD2760E080E00E94E100C8
S1131430882311F0CFBF12C0CFBF8EE390E090930A
S11314408501809384018EE30E9477011150412F1E
S1131450552760E070E0C7010E94F101DF91CF9150
S11314601F91FF90EF9008950F931F93CF93DF93F5
S1131470EC010FB7F89411270E948300FC018FE35D
S113148080830FBF109229021092280261E082E04B
S11314900E94C700882319F085E090E072C0809113
S11314A0C7018F5F8093C70181508B838FB7F894F6
S11314B0082F112762E081E00E94E100882329F4CB
S11314C00FBF0E94120281E05BC08FB7F894992786
S11314D024E02093B7018FBFD0938B01C0938A017E
S11314E00FBFFE013196818129819927982F882782
S11314F03327822B932B80729C7C8983892F992795
S113150081832981982F882733272164822B932B69
S11315108983892F992781831CA618A619A619AA3D
S113152018AA1FA680E88EA761E06093BA014091D3
S11315308A0150918B018FB7F894282F332780911B
S11315402401909125018830910511F0019711F043
S11315502FBF15C082E090E0909325018093240171
S11315606093660250936F0140936E0110922E01B6
S11315702FBF0E940D08882311F40E94EE0980E019
S11315809927DF91CF911F910F910895EF92FF92C8
S11315901F93CF93DF93182F7B01E82FFF27EE0FC4
S11315A0FF1FE157FE4F1182108210921301A09188
S11315B08F01B0919001109721F08091270280FF54
S11315C076C081E08093130168C09927982F8827FB
S11315D03327822B932BED014B878E83892F9927F9
S11315E08F832FB7F894332780916A0190916B0110
S11315F02FBFFD018483892F992785832FB7F89402
S1131600332780910D0190910E012FBF8887892F78
S1131610992789873196818129819927982F88274D
S1131620332720643868822B932B8983892F992749
S11316308183635F6C936D5080911001882351F016
S113164010921001CD010E94340A9927282F882373
S1131650A9F417C0862F9927909389018093880154
S1131660B0932901A093280180E10E945001809148
S11316701001882349F489E090E00AC08FEF809339
S11316801001822F992704C01092760180E090E027
S1131690892B19F082E10E945001112389F4EEE2B2
S11316A0EE16E2E0FE0661F41092140109C0ED01A9
S11316B04B858F812E816C916D506D3158F785CF9C
S11316C0DF91CF911F91FF90EF9008959B0180913E
S11316D01301882349F460918F017091900162177E
S11316E0730711F40E94C60A08951F93CF93DF93E2
S11316F0182F8FB7F894C82FDD2760E080E00E9490
S1131700E100882321F0CFBF80E090E005C0CFBF87
S1131710812F0E9477019927DF91CF911F9108951E
S11317200E949602C09AC09888E00E94750B88E0D7
S11317300E94750BC09A84E00E94F9080E94470930
S113174008951F93182F81E090E0909325018093D2
S11317502401109247010E9495088FB7F8949927A5
S113176010931E018FBF88E00E9450011F910895BD
S11317701F920F920FB60F9211242F933F934F9302
S11317805F936F937F938F939F93AF93BF93EF93E5
S1131790FF930E941C0480911801843009F4C7C08F
S11317A0863021F0833009F0EFC03EC09091710083
S11317B0987F80911901813041F4903499F583E048
S11317C0809318012091C80144C0983159F583E0F1
S11317D0809318019091C80180912F012091B0014C
S11317E0981708F472C0922F9E7F9093B001809155
S11317F0670281FF07C08D7F809367029061909399
S1131800B00103C02E772093B0018091B001809382
S1131810740081E08093180180910801882309F005
S1131820B3C07FC084E098C0809119019091C80131
S1131830813009F044C0E0916401F0916501E90F41
S1131840F11D8091730080832091C8012F5F209344
S1131850C80180912F012817A0F4332799270197F5
S11318602817390749F48091670282FD05C08091E9
S1131870B0018F7B8093B0018091B001809374009C
S113188083C09091B001292F2E7F2093B0018091C5
S1131890670281FF09C08D7F8093670220612093D6
S11318A0B0018091710003C09E779093B001809144
S11318B0B0018093740081E08093180165C0809129
S11318C02F012091B001981778F4E0916401F09110
S11318D06501E90FF11D8081809373009F5F9093F0
S11318E0C8012093740050C0922F9E7F9093B00142
S11318F08091670281FF07C08D7F809367029061AA
S11319009093B00103C02E772093B0018091B00171
S11319108093740081E080931801809108018823EA
S113192099F50E944D0580E00E9462062DC08091C9
S113193067028E7F809367029091B0019F7D9093A0
S1131940B00180917100887F883049F080917100E6
S1131950887F803121F081E00E94B20615C0392FC2
S113196030643093B00190917001990F20E0809120
S11319701901813009F421E0922B9093730086E0E1
S11319808093180130937400FF91EF91BF91AF9150
S11319909F918F917F916F915F914F913F912F9183
S11319A00F900FBE0F901F901895CF92DF92EF9279
S11319B0FF920F931F93CFB6F894DD240E94B102D7
S11319C0DC01CB0166E470E00E94F41A7BE0E72EB0
S11319D0F12CE80EF91EF0926302E09262020E947A
S11319E0310300271127A80197010E94EE03CFBEFF
S11319F01F910F91FF90EF90DF90CF9008951F9368
S1131A00CF93DF938FB7F894C82FDD271C2F8091D5
S1131A102401909125010897C9F489E00E94750B6F
S1131A2083E00E94F908C09A81E090E09093250138
S1131A30809324018FB7F894992723E020931E0103
S1131A408FBF88E00E945001CFBF30C0C098809102
S1131A506602882311F085E001C084E00E94750BC2
S1131A6083FD09C080E00E94750B83FF04C085E0FC
S1131A7090E020E003C083E090E021E09093250112
S1131A8080932401C09A1FBF222341F010922E019B
S1131A9083E00E94F9080E94D50C08C00E9431031B
S1131AA020E431E040E050E00E94EE03DF91CF916A
S1131AB01F910895EF92FF920F931F93CF93DF939B
S1131AC08B01809184019091850186FF40C18F7BB9
S1131AD08F3309F08EC1C0912A01D0912B01588116
S1131AE050935D0180915B0190915C01853091057B
S1131AF009F443C08630910509F48AC0029709F0BD
S1131B001FC185E090E090935C0180935B0140915C
S1131B104601852F99270196242F33272817390743
S1131B204CF1B79906C00E9904C0451B415040932F
S1131B30460140915D014A32E8F44423A1F0BE011C
S1131B406F5F7F4F483018F047E050E007C086E0F1
S1131B5090E090935C0180935B01552780E090E0D6
S1131B600E94F10146C110926901C09A84E00E946A
S1131B70F908E3C00E94900B3CC186E090E090938A
S1131B805C0180935B0180916D01882309F439C065
S1131B908091BB018823A9F5898185FF32C08F819B
S1131BA04E812FB7F89433276091800170918101A1
S1131BB02FBF9927982F88275527842B952B861775
S1131BC0970759F08F812E819927982F88273327DB
S1131BD0822B932B8F5F9F4FA1F489818770813073
S1131BE081F4C09AC0988AE00E94750BC09AC0988C
S1131BF040915D0147502896BE018FE30E94640224
S1131C00F8C040915D01475055272896BE01A6CFE4
S1131C10C09A80916301882339F484E00E94F90812
S1131C2080916301882311F0B7990AC00E9B08C004
S1131C3090912102992321F080915D018B3038F439
S1131C4080912A0190912B010E94A2023DC0913003
S1131C5001F5E0912502FF27EE0FFF1FEE0FFF1F96
S1131C60E353FE4F2081318142815381E0912A0167
S1131C70F0912B0121ABBB27A52F942F832F80AB91
S1131C80CA01AA27BB2787A7252F3327442755270F
S1131C9026A7809125029927019668E070E00E94AA
S1131CA0081B809325028091210281508093210298
S1131CB0882351F080912A0190912B010E94A20265
S1131CC0109225021092210280915D01FE01E80F1D
S1131CD0F11D808187FF31C0012B79F16981677023
S1131CE0E0912A01F0912B01623019F5A0916E0167
S1131CF0B0916F01109709F1809124019091250111
S1131D000797D9F4ED019B8183819817B1F487B7C4
S1131D108F7E87BF908181E08CA7E90FF11D8291AE
S1131D20319688A780818F7789A780E00E94A10BD4
S1131D3004C0613011F48FE02AC00E94470959C0E1
S1131D4010926901C09A84E00E94F90852C08E334F
S1131D5009F04FC0C09A8091240190912501089701
S1131D60C9F4C09889E00E94750BC09A83E00E9470
S1131D70F90881E090E090932501809324018FB7C6
S1131D80F894992723E020931E018FBF88E00E94D6
S1131D9050012FC080916602882349F484E090E0CA
S1131DA090932501809324010E94FF0C22C083E0BC
S1131DB00E94F90883E090E0909325018093240128
S1131DC00E94B102DC01CB0166E371E00E94F41AC7
S1131DD0EBE0EE2EF12CE80EF91EF0924101E092B8
S1131DE040010E94310300271127A80197010E9496
S1131DF0EE03DF91CF911F910F91FF90EF90089523
S1131E001F920F920FB60F9211242F933F934F936B
S1131E105F936F937F938F939F93AF93BF93EF934E
S1131E20FF932FB1E091AE01F091AF01309739F0FB
S1131E3080918D0190918E01E80FF91F208380918C
S1131E408D0190918E01019690938E0180938D0166
S1131E5080E00E94F80040912C0150912D01809166
S1131E608D0190918E018417950718F40E948301C7
S1131E701CC06091AE017091AF0180912C029091D1
S1131E802D021092AF011092AE0110922D02109209
S1131E902C0210922D0110922C0110928E0110929E
S1131EA08D012FB120E00E945A0DFF91EF91BF9157
S1131EB0AF919F918F917F916F915F914F913F91DE
S1131EC02F910F900FBE0F901F90189578941F922A
S1131ED00F920FB60F9211242F923F924F925F925E
S1131EE06F927F928F929F92AF92BF92CF92DF9226
S1131EF0EF92FF920F931F932F933F934F935F9310
S1131F006F937F938F939F93AF93BF93CF93DF93FD
S1131F10EF93FF93C6B5D7B58FB7F894282E0E94D8
S1131F2031039B012C1B3D0B442755272B013C01FE
S1131F30421A530A640A750A80912401909125017A
S1131F408530910521F0069709F0E0C0BFC086E016
S1131F5090E0909325018093240131E0332E309258
S1131F6068011092260180E00E940904E0916E014C
S1131F70F0916F0141AABB27A72D962D852D80AB2B
S1131F80C301AA27BB2787A7872D9927AA27BB2781
S1131F9086A7E0916E01F0916F0185A5882309F46D
S1131FA084C06081655077274F01860E971EF40127
S1131FB02081E1808281A3809927AA27BB27BA2F99
S1131FC0A92F982F8827332744275527522F442792
S1131FD033272227FF24002711278701FF24EE241B
S1131FE02E293F29402B512BBB24CC24DD242A2924
S1131FF03B294C295D29822B932BA42BB52B8419C7
S11320009509A609B7098383292F3A2F4B2F552702
S113201022839D014427552721838B2F9927AA27A3
S1132020BB278083C09824E0A40180E090E00E9454
S11320301C08C09AF4012081E1808281A380992741
S1132040AA27BB27BA2FA92F982F882733274427DD
S11320505527522F442733272227FF2400271127EF
S11320608701FF24EE242E293F29402B512BBB242A
S1132070CC24DD242A293B294C295D29822B932B4E
S1132080A42BB52B840D951DA61DB71D8383292F65
S11320903A2F4B2F552722839D014427552721830F
S11320A08B2F9927AA27BB278083E0916E01F0919B
S11320B06F01818185FF02C03092470183E00E9455
S11320C0F90887B78F7E87BF84997AC01092680118
S11320D081E00E940904E0916E01F0916F01818119
S11320E085FF0FC087E090E0909325018093240141
S11320F00E94310320E031E040E050E00E94EE0312
S113210003C080E00E94A10B849B5AC080912601E9
S1132110882391F580916801882371F511E010936B
S113212068010E94090480B320912102283098F4A8
S1132130E0912502E20FFF27E770F070EE0FFF1F1A
S1132140EE0FFF1FE353FE4F40825182628273827F
S11321502F5F2093210210932601D0938701C0930F
S1132160860184992DC0992764E0969587956A9590
S1132170E1F7182F117001C010E0809168018130DF
S1132180F9F4109268010E940904109226011123A7
S1132190B9F48091860190918701C81BD90B2A97C5
S11321A078F480912102882319F0815080932102D0
S11321B080916E0190916F01009711F00E94A2022C
S11321C02FBEFF91EF91DF91CF91BF91AF919F917E
S11321D08F917F916F915F914F913F912F911F91BB
S11321E00F91FF90EF90DF90CF90BF90AF909F90B2
S11321F08F907F906F905F904F903F902F900F90B3
S11322000FBE0F901F90189578941F920F920FB6DF
S11322100F9211241F932F933F934F935F936F93C8
S11322207F938F939F93AF93BF93EF93FF9387B75E
S11322308F7E87BF78941FB7F8948091770190912F
S11322407801A0917901B0917A010097A105B105B7
S113225009F051C0809124019091250185309105A8
S113226061F18630910530F48330910549F004978B
S113227081F51AC087309105F1F0089751F514C023
S1132280869B0FC084E090E0909325018093240105
S11322900E94310327E030E040E050E00E94EE036A
S11322A018C00E94D50C15C00E940D08882389F41B
S11322B00E94FF0C0EC080E00AC089E00E94750BEA
S11322C081E00E94090483E00E94F90887E00E94EB
S11322D0A10B80911F0190912001019771F482E07C
S11322E090E09093200180931F01DE98DE9A80E0B5
S11322F00E94600702C00E944E03812F99278FBF5E
S1132300FF91EF91BF91AF919F918F917F916F91C9
S11323105F914F913F912F911F910F900FBE0F909E
S11323201F90189561E081E00E94C7008823E9F4BA
S11323308FB7F894282F332780911F0190912001A3
S1132340892B11F02FBF20C081E090E090932001F1
S113235080931F012FBFDD9A0E94310324E130E0F6
S113236040E050E00E94EE030FC062E081E00E9472
S1132370E100882319F089E090E0089561E081E0AC
S11323800E94E100882319F080E090E0089585E040
S113239090E00895AF92BF92CF92DF92EF92FF92B6
S11323A00F931F93CF93DF93CDB7DEB7A8970FB6E4
S11323B0F894DEBF0FBECDBFE82FFF27E331F10550
S11323C008F09EC5EA5BFF4FEE0FFF1F0590F491E6
S11323D0E02D099480912702882309F491C540E0F7
S11323E051E05CC52FB7F89433278091C4018093E2
S11323F0070153E0509317012FBF209107018FB7B6
S1132400F8949927209308018FBF222309F078C5F7
S11324108FB7F894282F332780910801882309F077
S113242035C02FBF8FB7F894992720911801213018
S113243009F0C3C042E0409318018FBF2FB7F8944E
S113244033278DE290E0909371018093700180E6D0
S113245091E0909365018093640140932F01509320
S113246067021092C801109219012FBF0E941C0428
S11324702FB7F89433278091B0018F7E816E8093BB
S1132480B00194E090931801809374002FBF38C575
S113249080915E01882361F52091C9013091CA01C0
S11324A04091CB015091CC01EFB7F894FF27609194
S11324B0B2017091B3018091B4019091B501E090A3
S11324C04201F090430100914401109145016E0DC9
S11324D07F1D801F911FEFBF2093C9013093CA0154
S11324E04093CB015093CC0110925E010E943305BE
S11324F00E94190243C00E9419025B016C018FB74C
S1132500F894992710928C018FBF7FEFE72E7FEF0D
S1132510F72E7FEF072F7FE7172F60E0E3E9F1E065
S1132520808581FF1CC080819181A281B381A60135
S11325309501281B390B4A0B5B0BDA01C901248175
S1132540358146815781281B390B4A0B5B0B2E15AD
S11325503F05400751071CF479018A0161E039966F
S113256031E0EE3AF307E1F6662309F4C9C41E1418
S11325701F04100611062CF0C601B5010E94D506F1
S1132580BFC4E092C901F092CA010093CB01109339
S1132590CC0181E080935E01A8019701C601B501D9
S11325A00E943305ADC48FB7F894992720916C012C
S11325B020931B0123E020931A018FBFA1C40E9422
S11325C025049EC489B78F7789BFAB98A39880915F
S11325D01D01813011F40E9425048FB7F8949927C6
S11325E010921D0110921C01E8CF0FB7F894112727
S11325F081E00E94090461E0E62EF12CF0922501AD
S1132600E0922401109226011092470110925F017A
S11326100FBF0FB7F89411270E949602F0925C0145
S1132620E0925B011092690189B78F7B89BF80E4D6
S113263088BF8AB780628ABF8AB78F7E8ABF89B70C
S1132640806489BF0FBF8FB7F894082F112780913A
S11326501F0190912001049719F483E00E94750BE7
S11326600FBF0FB7F8941127C09A80E00E94F908B1
S11326700FBF8FB7F894992722E02093B7019DCF1D
S11326808FB7F89499271092B70197CF8FB7F89422
S11326909927F0901E018FBF63E081E00E94E10062
S11326A0882359F10FB7F89411271092250110923D
S11326B0240187B78F7E87BF87B78F7D87BF83E06D
S11326C00E94F908C09A0FBF0FB7F894112710920F
S11326D05C0110925B010E949602C09A89B78F7BBD
S11326E089BF0FBF1092200110921F01DE98DD9860
S11326F0DE9A87E00E94500107C08FB7F8949927AB
S113270022E02093B7018FBF00918A0110918B01C1
S11327100E9412028091280290912902892B09F0CB
S1132720EFC38FEF809310014F2DB801AEC38FB765
S1132730F894282F3327122F80916402882309F0FC
S1132740A5CE81E08093640280911F0190912001C5
S1132750049721F481E00E94600703C08AE00E948C
S113276050011FBFCDC38FB7F8949927109264020C
S113277024CF8FB7F894282F332780912101882301
S113278009F084CE2FBF80B3992756E0969587959C
S11327905A95E1F7182F117090918201809183016D
S11327A08917D9F01917C9F484E090E090932001B7
S11327B080931F018FB7F894992721E0209321017A
S11327C08FBF60E070E08DE10E947C090E945D088B
S11327D0C09AC09886E00E945001109383018BE058
S11327E0F2C08FB7F8949927109109018FBF123066
S11327F009F465C0133030F4112359F0113009F095
S11328007FC348C0133009F474C0143009F078C38E
S1132810A0C0C0988FB7F894082F112780911F018A
S113282090912001029709F0B9C083E090E0909361
S1132830200180931F0168E170E08DE10E947C0912
S113284081E0809382011092210180B3992746E0B0
S1132850969587954A95E1F78170907080938301EE
S11328608BE00E94500181E00E94750B6FE772E0DB
S11328708CE10E947C090E94DD090E94A30966E59F
S11328807AE287E10E947C096FEF70E885E10E949B
S11328907C0984C0C09886E00E94750B0E94DD0903
S11328A00E94A3090E945D08C09AC09883E00E9418
S11328B0750BC09A81E00E94F9088AE084C0C09830
S11328C08FB7F894082F112760E080E00E94E100A0
S11328D0882311F00FBF0AC00FBF83E50E94770160
S11328E080E00E94770180E00E947701C09A82E034
S11328F02DC08FB7F8949927209124018FBF2430DD
S113290039F0283041F0223001F50E94EE09F8C276
S11329100E94FF0CF5C2C09889E00E94750BC09A12
S113292083E00E94F9088FB7F894992721E030E0FA
S113293030932501209324018FBF8FB7F8949927F2
S113294010931E018FBF88E03EC083E00E94F90807
S1132950D7C20E945806D4C20FB7F89411274091E9
S11329602C0150912D016091AE017091AF018091C5
S11329702C0290912D021092AF011092AE01109290
S11329802D0210922C0210922D0110922C01109203
S11329908E0110928D0120E00E945A0D0FBFB0C22B
S11329A02FB7F89433278091660180930C0182E05D
S11329B0809323012FBF80910C01882309F0A0C2CA
S11329C0B89AC0988CE00E9450019AC2A0912A0142
S11329D0B0912B01FC909D012F0D311DF9018081D7
S11329E0881F8827881FFD0183A7F90180818F77BD
S11329F0FD0181A721503040F9018081FD0180A7AC
S1132A00A0912A01B0912B01FD0132818FB7F89476
S1132A109927209162018FBF222309F490C0832F4C
S1132A2099279695879596958795837090708230AF
S1132A30910541F5878146812FB7F894332760913A
S1132A408001709181012FBF9927982F88275527DE
S1132A50842B952B8617970719F481E090E06CC0BE
S1132A60FD018781268140E050E09927982F88272F
S1132A703327822B932B8F5F9F4F11F441E050E05B
S1132A80CA015AC0039709F0D7C19E012F5F3F4F77
S1132A904CEB51E088E0FA010190AF01F901019299
S1132AA09F018150C1F79E012F5D3F4FAE014F5FE3
S1132AB05F4F88E0FA010190AF01F90101929F0193
S1132AC08150C1F79E01275F3F4FAE014F5D5F4FBD
S1132AD088E0FA010190AF01F90101929F01815050
S1132AE0C1F79E012F5E3F4FAE01475F5F4F88E005
S1132AF0FA010190AF01F90101929F018150C1F7E0
S1132B009E01275E3F4FAE014F5E5F4F88E0FA01A2
S1132B100190AF01F90101929F018150C1F748E092
S1132B2050E0BE01675E7F4FCD0106960E94711B87
S1132B30892B09F081C103C0882309F47DC1FCE01D
S1132B40FF1508F079C1C0902A01D0902B01F6013D
S1132B502281822F992716E0969587951A95E1F799
S1132B60039719F468E070E002C062E070E0822F1D
S1132B709927969587959695879583709070039776
S1132B8019F488E090E002C082E090E026E030E0B2
S1132B90C20ED31E40E050E020E030E0F601E80F22
S1132BA0F91F8AEF9FEFC80ED91E05C08191480F07
S1132BB0511D2F5F3F4F26173707C4F3F60163817A
S1132BC08FEF80932A028FB7F894782F20E030E0BB
S1132BD0E4E3F1E0808191818417950731F48281E7
S1132BE0861709F422C120932A022F5F3F4F3396A0
S1132BF02430310579F77FBF90912A023FB7F894CA
S1132C009F3F21F080912701891799F42091270192
S1132C10822F9927FC01EE0FFF1FE80FF91FEC5CD0
S1132C20FE4F5183408362832F5F237020932701DB
S1132C300CC0892F9927FC01EE0FFF1FE80FF91F25
S1132C40EC5CFE4F518340836283832F99278FBFAF
S1132C500FB7F8941127C6010E948300FC019081EC
S1132C600FBFF60183A5882309F4E2C09F3309F05E
S1132C70DFC0878146812FB7F894332760910D0117
S1132C8070910E012FBF9927982F88275527842BE1
S1132C90952B8617970761F0878126819927982FAE
S1132CA088273327822B932B8F5F9F4F09F0C0C057
S1132CB0F6018385863009F0BBC0F9E1FF1609F0FF
S1132CC0A8C0B601645F7F4FD6015096F601808993
S1132CD0813009F044C0868527859927982F882755
S1132CE03327822B932B84369105C9F52FB7F8949B
S1132CF033278BB392E089278BBB2FBF8789482F5B
S1132D00552747FD5095409316018189282F332775
S1132D1027FD3095209302018389809303018489E0
S1132D20882321F080911501882321F4222311F0B6
S1132D30442319F4AA981092150180910201882362
S1132D4021F0813019F4DA9801C0DA9A80910301F4
S1132D50882321F0813019F4D89801C0D89A809141
S1132D601601882309F463C080910201882309F4C1
S1132D7050C080911501882309F04BC0FB01818567
S1132D80882309F446C08C91882309F042C02FB7E8
S1132D90F89433278BB391E089278BBB2FBF8091A5
S1132DA0AD0181FF2AC0E090A901F090AA01009131
S1132DB0AB011091AC010E9419029B01AC018091FE
S1132DC0A5019091A601A091A701B091A801281B8B
S1132DD0390B4A0B5B0B2E153F054007510768F46E
S1132DE0E21AF30A040B150BF1E6EF16FAEEFF06EE
S1132DF0F0E00F07F0E01F0748F440E65AEE60E009
S1132E0070E082E00E944002A29AAA9A81E0809334
S1132E10150180911601813051F4809102018823BB
S1132E2031F0813029F4DA9803C07FBF01C0DA9A07
S1132E30D0922B01C0922A018FB7F894992710924F
S1132E4069018FBF0E9447095BC090917601809110
S1132E501001981709F454C0909310019923D1F4E8
S1132E60009128011091290160918801C8010E94F4
S1132E70340A482F5527442309F442C08FEF809326
S1132E8010016091280170912901F80183850E9445
S1132E90660B36C08FEF8093100132C090912702E9
S1132EA0852F8923B9F0E42FFF27EE0FFF1FE15789
S1132EB0FE4F2081318111821082852F80959823C5
S1132EC090932702442331F42E523240B1F41092ED
S1132ED0140113C04F5F483098F4550FDFCF809131
S1132EE01301E82FFF27EE0FFF1FE157FE4F60810C
S1132EF0718141E00E94C60A03C0550F41E0CECF64
S1132F00A8960FB6F894DEBF0FBECDBFDF91CF9168
S1132F101F910F91FF90EF90DF90CF90BF90AF90F3
S1132F200895809122028F3FB1F0282F3327F901B1
S1132F30E85BFE4F8081809322028F3F11F48093DF
S1132F4065028FEF80832F3F31F0822F0E94CA11D8
S1132F5081E090E0089580E090E008951F93CF937E
S1132F60DF93CDB7DEB7E0970FB6F894DEBF0FBEA0
S1132F70CDBF1FB7F89443E150E06FEF70E088E4F1
S1132F8091E00E947E1B8FEF809322028093650262
S1132F9081E08EBD88E080BF83E083BF8CB59DB5A2
S1132FA04AE72CB53DB52817390708F441504423A6
S1132FB011F0C901F6CF92B782B78917E9F32CB59E
S1132FC03DB592B782B78917E9F38CB59DB5821BDD
S1132FD0930B4096E5E096958795EA95E1F79093F3
S1132FE024028093230213BE83B78EBD8EB580BFA7
S1132FF012BE1DBC1CBC8FEF86BF86B780937C00BD
S113300080B7992787709070892BD1F7D29AD19A7B
S1133010D09ADA9AD99AD89A15BA8FEF84BBD498F1
S1133020DC981DBC1CBC87B7846087BF8EB5887FC5
S113303084608EBD0E9491178823E1F78FEF8093FF
S11330406701E4E3F1E08FEF9FEF918380831282C5
S1133050339621E0E034F207C1F70E94B102609395
S1133060C70180910001909101010196AA27BB2715
S11330708093720190937301A0937401B0937501CE
S11330808DEE91E090932B0180932A018E98B89A4B
S11330908C988FEF809326021092B6011092B7019C
S11330A01092B8011092B901B89AD69AD59A8FB7EE
S11330B0F894992720910D0130910E018FBF309320
S11330C08101209380010E94580529A73AA74BA7A4
S11330D05CA76DA77EA78FA798ABDE019196FE0132
S11330E0B99688E001900D928150E1F7DE01519686
S11330F0FE01B19688E001900D928150E1F7DE0166
S11331005996FE01719688E001900D928150E1F785
S1133110ACEBB1E0FE01799688E001900D9281500C
S1133120E1F780910F01992790936B0180936A01D5
S11331308FE18093B1018AE18093C5010E94580513
S113314029A73AA74BA75CA76DA77EA78FA798AB23
S1133150DE019196FE01B99688E001900D928150AE
S1133160E1F7DE011196FE01B19688E001900D921F
S11331708150E1F7DE011996FE01319688E0019055
S11331800D928150E1F7ACEBB1E0FE01399688E095
S113319001900D928150E1F7ACEBB1E0FD0137965F
S11331A09C9180818D939083319781E0EF3BF80768
S11331B0B9F781E08093620110922B0280936D0134
S11331C01092BB0180B7886080BF8BE083BF86EE1E
S11331D081BF87B7826087BF0E94B0048FEF80935E
S11331E07B010E9491178823E1F7812F99278FBFD4
S11331F078940E949211DA988FB7F894482F552743
S11332004BC087B7992783709070892B19F4E5E038
S1133210F0E013C080B7992787709070892BD1F79D
S113322081B792B7891B8C3030F082B7853F18F490
S1133230E3E0F0E002C0E2E0F0E087B7887BC1F4AD
S113324080917D008B7FA1F46E9912C08AB1909118
S11332509A00892B887161F48091740082FD08C002
S1133260379B03C081E090E005C085E090E002C098
S113327080E090E025B78E1708F4E82FFF27EE547E
S1133280FF4FE491237E2062E22BE5BF789488957A
S1133290F89485B78F7D85BF809122028F3F09F412
S11332A0B0CF282F3327F901E85BFE4F808180934C
S11332B022028F3F11F4809365028FEF80832F3FAA
S11332C009F49FCF4FBF822F0E94CA1195CFACE261
S11332D0B0E0EDE6F9E10C943A1B222E332E442E95
S11332E0552E662E772E882E992EFE013196A8E053
S11332F01192AA95E9F729823A824B825C826D8207
S11333007E828F829886FE013996B8E01192BA9532
S1133310E9F7A986BA86CB86DC86ED86FE860F871A
S1133320188B89819A81AB81BC8189A79AA7ABA7A5
S1133330BCA77C018D018FEF9FEFA0E0B0E0E822F5
S1133340F9220A231B2389A59AA5ABA5BCA51D01B7
S11333504424552489859A85AB85BC858DA39EA379
S1133360AFA3B8A75C016D018FEF9FEFA0E0B0E0C1
S1133370A822B922CA22DB228DA19EA1AFA1B8A5A1
S11333803D0188249924C801B701A60195010E9432
S11333901B1B69A37AA38BA39CA3C801B701A40137
S11333A093010E941B1B7B018C01C201B101A60188
S11333B095010E941B1B5B016C01C201B101A401B8
S11333C093010E941B1B3B014C01EA0CFB1C0C1DCE
S11333D01D1D89A19AA1ABA1BCA19D01442755271C
S11333E02E0D3F1D401F511F2A153B054C055D0541
S11333F040F480E090E0A1E0B0E0680E791E8A1EFF
S11334009B1ECA01AA27BB27860D971DA81DB91D9F
S11334108D8F9E8FAF8FB8A3A9013327222789A14F
S11334209AA1ABA1BCA1A070B070280F391F4A1F8C
S11334305B1F298F3A8F4B8F5C8FA98CBA8CCB8CF6
S1133440DC8CED8CFE8C0F8D18A1FE01719698E03A
S113345011929A95E9F7ED8AFE8A0F8B188F2D81C8
S11334603E814F8158856DA17EA18FA198A50E94B0
S11334701B1B3B014C012D853E854F85588969A551
S11334807AA58BA59CA50E941B1B2D893E894F897B
S1133490588D260F371F481F591F260D371D481DED
S11334A0591D2D8B3E8B4F8B588F6D887E888F884E
S11334B0988C2A2D3B2D4C2D5D2D662D772D882D36
S11334C0992DE2E1AC960C94561BA0E1B0E0EBE63A
S11334D0FAE10C943A1B222E332E442E552E662EDE
S11334E0772E882E992E002309F466C088E0FE0109
S11334F0319611928A95E9F729833A834B835C8349
S11335006D837E838F829887E0E2E01B1E16CCF5E4
S11335102D813E814F815885602F772767FD7095F7
S1133520DA01C901062E04C0B695A795979587952B
S11335300A94D2F78D879E87AF87B88B04C0220F79
S1133540331F441F551FEA95D2F789819A81AB81B5
S1133550BC8104C0B695A795979587956A95D2F7CF
S1133560282B392B4A2B5B2B29873A874B875C877F
S113357029843A844B845C846D847E848F84988807
S11335801BC01D861E861F86188A2E2F332727FDF3
S11335903095309521953F4F8D819E81AF81B885BF
S11335A004C0B695A795979587952A95D2F78987EC
S11335B09A87AB87BC87DCCF222D332D442D552D24
S11335C0662D772D882D992DE2E160960C94561B7B
S11335D0991B79E004C0991F961708F0961B881F61
S11335E07A95C9F780950895AA1BBB1B51E107C0C2
S11335F0AA1FBB1FA617B70710F0A61BB70B881F7F
S1133600991F5A95A9F780959095BC01CD0108950D
S113361097FB092E07260AD077FD04D0E5DF06D0F4
S113362000201AF4709561957F4F0895F6F79095F0
S113363081959F4F0895629FD001739FF001829FEF
S1133640E00DF11D649FE00DF11D929FF00D839F2D
S1133650F00D749FF00D659FF00D9927729FB00DCA
S1133660E11DF91F639FB00DE11DF91FBD01CF01DD
S1133670112408952F923F924F925F926F927F92FE
S11336808F929F92AF92BF92CF92DF92EF92FF926E
S11336900F931F93CF93DF93CDB7DEB7CA1BDB0B1A
S11336A00FB6F894DEBF0FBECDBF09942A883988BF
S11336B048885F846E847D848C849B84AA84B984C6
S11336C0C884DF80EE80FD800C811B81AA81B981D2
S11336D0CE0FD11D0FB6F894DEBF0FBECDBFED01E6
S11336E00895FB01DC0104C08D910190801921F43F
S11336F041505040C8F7881B990B0895DC0101C064
S10F37006D9341505040E0F70895FFCF56
S113370C0100010140FFFF01FFFFFFFFFF01002249
S107371CFFFFFF01A7
S9030000FC
