S01800006275696C642F6D6963617A2F6D61696E2E73726563E5
S11300000C945F000C94B8090C94C2090C94CC09AC
S11300100C94D6090C94E0090C94EA090C94FE0B98
S11300200C94F4090C947E000C947E000C94AC1295
S11300300C944A140C9482090C9498090C94FE09AB
S11300400C9471090C9446120C9475070C947E0060
S11300500C94F1070C947E000C947E000C947E00AA
S11300600C948D090C943E090C941D090C942809D8
S11300700C9433090C9451090C9400090C947E00DF
S11300800C9412090C947E000C947E003A15D6153B
S1130090BA16ED16EF16F2163F17CC17FF17821893
S11300A0CE18D4182519401946197F193A1A5E1A20
S11300B0721AE01B31152A1C00081C181410112494
S11300C01FBECFEFD0E1DEBFCDBF11E0A0E0B1E0B5
S11300D0E2E2F2E400E00BBF02C007900D92A83107
S11300E0B107D9F715E0A8E1B1E001C01D92A53927
S11300F0B107E1F70E946C1C0C9410210C940000D1
S11301008FB7F894992708958FBF0895FC018281D1
S11301109927582F442781819927482B592BCA01A5
S1130120892F9927869586958370907082309105E2
S113013059F08330910559F0892B19F420E030E00F
S113014008C02CE93FEF05C022E030E002C028E0FF
S113015030E0CA0184E0989F812D992711248230D0
S1130160910559F08330910559F0892B19F480E0F9
S113017090E008C08CE99FEF05C082E090E002C0E7
S113018088E090E0280F391F2A5F3F4FCF01820F8C
S1130190931F0895282F9FB7F894662349F0E82FFA
S11301A0FF27EA5FFA4F8081882311F021E006C01F
S11301B0E22FFF27EA5FFA4F608320E0892F992717
S11301C08FBF822F99270895E82F8FB7F894282F8F
S11301D0332790E0FF27EA5FFA4F8081861709F4FE
S11301E091E02FBF892F99270895882311F06E9AE3
S11301F008956E980895882311F06F9A08956F9862
S1130200089580E00E94F500BA9ABB98B99AB89A0A
S11302106C9A80E00E94FB006B986A9881E00E94CF
S1130220F500709A8DB18C7F8DB90895282F9FB7F2
S1130230F894E82FFF27E55AFE4F80818F3F81F421
S1130240E0918E05E21771F40BC020937B0504C086
S1130250FF27E55AFE4F208320938E0520E007C038
S113026025E005C080917B058F3F91F7EECF892F64
S113027099278FBF822F992708951F93182F81E004
S11302800E94F5001FB9779BFECF8FB199271F916C
S113029008958F929F92AF92BF92CF92DF92EF9286
S11302A0FF920F931F93CF93DF938FB7F8949927FF
S11302B0C0908505D09086058090E1049090E2047A
S11302C0C0915C04D0915D0420913C0130913D01CA
S11302D0EAE0AE2EB12CAC0EBD1E2A153B0508F487
S11302E059018FBF7401EC0EFD1E86010C0F1D1FFA
S11302F014C0C114D10419F0F801808101C080E058
S11303000E943D018114910411F0F701808321962C
S11303100894E11CF11C0F5F1F4FC5010197C8171A
S1130320D90738F381E00E94FB009FB7F894C11409
S1130330D10431F0CC0EDD1EF60180818FB901C0ED
S11303401FB8D0935D04C0935C04892F99278FBF95
S113035080E090E0DF91CF911F910F91FF90EF909B
S1130360DF90CF90BF90AF909F908F9008952FB75C
S1130370F894332750933D0140933C0190938605B4
S1130380809385057093E2046093E10410925D0408
S113039010925C042FBF452B29F08FB10E944901B4
S11303A09927089580E10E94160180E090E0089565
S11303B08FB7F8949927109208058FBF08958FB7C7
S11303C0F89499272BB331E023272BBB8FBF0895D3
S11303D08FB7F89499272BB334E023272BBB8FBF17
S11303E00895FF920F931F93CF93DF93EC01FFB611
S11303F0F89480918A05882321F5809175019927C5
S1130400FC01EE0FFF1FEA51FB4F00811181D183E4
S1130410C08301966CE070E00E94712080937501A6
S113042020910104281719F481E080938A058091B2
S11304300B05882349F40E94160181E080930B0583
S113044003C00E94DF018E018F2D99278FBF0E9468
S1130450E801C801DF91CF911F910F91FF9008959A
S113046080E88093570110927D0110927F051092CD
S11304707A05109279010895CF93DF93FC0115A6B4
S1130480DC019E96ED011B821A82198280E886A700
S1130490DF91CF9108952F923F924F925F926F9286
S11304A07F928F929F92AF92BF92CF92DF92EF9200
S11304B0FF920F931F93CF93DF93CDB7DEB72897A7
S11304C00FB6F894DEBF0FBECDBF2090FA03309074
S11304D0FB034090FC035090FD036624772488249A
S11304E00EE4A02E13E8B12ECC24DD24EE24FF2448
S11304F000E010E0222D332D442D552D662D772D4F
S1130500882D90E00E94D01E29833A834B835C831C
S11305106D837E838F839887822E932EA42EB52E8F
S11305202401350100E20E94CE1FA22EB32EC42E58
S1130530D52EC301B20196958795779567956A0D77
S11305407B1D8C1D9D1D97FF05C09F776F5F7F4F9F
S11305508F4F9F4F6093FA037093FB038093FC03C8
S11305609093FD0328960FB6F894DEBF0FBECDBF5F
S1130570DF91CF911F910F91FF90EF90DF90CF907B
S1130580BF90AF909F908F907F906F905F904F90AF
S11305903F902F9008958FB7F8946091FF03709166
S11305A000042CB53DB506B602FE04C06F5F7F4F54
S11305B02CB53DB599278FBF88279927CB0177277D
S11305C0662744275527622B732B842B952B08957C
S11305D0EF92FF920F931F930E94CB027B018C0139
S11305E02091090430910A0440910B0450910C04A9
S11305F08091030490910404A0910504B091060431
S1130600820F931FA41FB51FE216F30604071507F4
S113061030F082179307A407B50758F005C0821776
S11306209307A407B507E0F5E816F9060A071B07C0
S1130630B8F59C01AD012E193F09400B510B213037
S113064060E8360760E0460760E0560768F180E03E
S113065090E8A0E0B0E0E80EF91E0A1F1B1FE0922C
S11306600904F0920A0400930B0410930C0480E034
S113067090E8AFEFBFEFE80EF91E0A1F1B1F2050D2
S11306803048404050402093030430930404409386
S113069005045093060420E030E840E050E014C024
S11306A020E030E040E050E08093090490930A0495
S11306B0A0930B04B0930C0410920304109204044E
S11306C01092050410920604A901B7012CB53DB59A
S11306D0C9018E199F0903968417950720F0B90163
S11306E06D5F7F4F02C0640F751F6115710511F4B2
S11306F061E070E0615070407BBD6ABD80E186BFFF
S113070087B7806187BF1F910F91FF90EF90089585
S11307100F931F930FB7F8941127609309047093F4
S11307200A0480930B0490930C04209303043093E5
S1130730040440930504509306040E94E8020FBF8A
S11307401F910F91089597B79F7D97BF90E296BF31
S1130750882319F08EB5806402C08EB58F7B8EBD60
S113076087B7806287BF80E090E008957FB7F894F0
S113077062B720914101309142014091430150916F
S1130780440106B601FE0FC081B792B7280F311D90
S1130790411D511D2F5F3F4F4F4F5F4F290F311D9B
S11307A0411D511D04C0260F311D411D511D872FB0
S11307B099278FBFCA01B90108951F931FB7F894F1
S11307C080918905882341F481E00E9416018823E1
S11307D019F481E080938905812F99278FBF1F9198
S11307E00895582F8091210190912201892B19F0AD
S11307F085E090E008952FB7F894552309F448C094
S113080010922401109225017093200160931F011E
S113081082E090E09093220180932101509327017C
S113082010922601523011F040E001C0445F80E094
S1130830840F80932301822F99278FBF8FB7F89459
S1130840282F33278091E5048A3011F42FBF19C073
S11308502FBF9FB7F89480911904882311F020E0EA
S113086006C081E08093190450931A0421E0892F73
S113087099278FBF222329F00E94DD0380E090E0B6
S11308800895109222011092210181E090E00895D0
S113089085E08093240110922501709320016093D8
S11308A01F0182E090E09093220180932101109235
S11308B027011092260185E0495FBACFDF92EF92BB
S11308C0FF920F931F938FB7F894282F3327D22EBC
S11308D091B782B746B7981711F041FF02C02FBFF6
S11308E06AC0809153048823E1F10E94B603E0902A
S11308F00205F0900305009104051091050520916F
S113090053013091540140915501509156016E1993
S11309107F09800B910B621773078407950720F0FA
S11309201092530471E01EC02E0D3F1D401F511F35
S11309308091410190914201A0914301B091440101
S1130940281B390B4A0B5B0B273E3105410551052A
S113095040F4822F223010F070E005C070E082E095
S113096002C070E086EE682F615000B601FCFDCF36
S113097082B7681709F46F5F2091410130914201F9
S11309804091430150914401DA01C9010196A11D2E
S1130990B11D860F911DA11DB11D82179307A407D8
S11309A0B50710F4622F609561BFDFBE772319F09D
S11309B087E00E9416011F910F91FF90EF90DF9046
S11309C00895AFB7F894BB27E1E0E0935304609334
S11309D00205709303058093040590930505209305
S11309E05301309354014093550150935601AFBFC6
S11309F00E945E0408958FB7F89499272BB332E0D0
S1130A0023272BBB8FBF08958091E5048A3021F4FE
S1130A1080917E01843021F081E080931C0108954F
S1130A2083E00E94160110921C0108952FB7F894D8
S1130A3033278CB95E9A2FBF0895FC0161157105A7
S1130A4019F481E090E008958091110490911204CA
S1130A50892B19F085E090E0089570932005609348
S1130A601F05F0931204E093110410928001109278
S1130A707F0181E0809381015E9A569A808121E012
S1130A8030E03093800120937F010E94160580E0BE
S1130A9090E008958FB7F894992720912D012E7F27
S1130AA020932D012EE7209374018FBF61E070E045
S1130AB084E791E00E941D0599270895AF92BF92A3
S1130AC0CF92DF92EF92FF920F931F93CF93DF9316
S1130AD0CDB7DEB728970FB6F894DEBF0FBECDBFF3
S1130AE020E070E0E0910001F091010132E14DE677
S1130AF05CE46FE4809101019E2F28960FB6F89470
S1130B00DEBF0FBECDBFDF91CF911F910F91FF903C
S1130B10EF90DF90CF90BF90AF9008958FB7F89487
S1130B20282F3327922F8091E5048A3041F0809159
S1130B307E01843021F02FBF89E090E008959FBFAB
S1130B4082E00E94160180E090E00895492F552725
S1130B50982F8827482B592B772746275727242F48
S1130B6022952F70332724273527C901982F8827EA
S1130B709295907F822793279C01307055E0220F35
S1130B80331F5A95E1F7822793270895982F809170
S1130B902801882389F5992379F531E030932801D8
S1130BA0809106018093290120911D01822F81707B
S1130BB08093580180910B0190910C0190932B012B
S1130BC080932A0180911E0180932C013227317079
S1130BD0267EE32FFF27EE0FFF1FE95FFE4F808184
S1130BE0918190930C0180930B01232B20931D0181
S1130BF086E00E941601089580911D0180FF02C0C5
S1130C008B7F01C08D7F80931D0108950F931F93E7
S1130C10082F162F80917E018130D9F0813038F071
S1130C20823009F44AC0833009F028C159C0002336
S1130C3009F458C110921905109218051092FF0476
S1130C40109221051092F203109263041092620430
S1130C5039C1002309F046C1809162049091630474
S1130C600E94A605909363048093620482E08093BB
S1130C707E0110932105143409F000C125C1869525
S1130C80869503C080911D018695817009F0F6C098
S1130C9080911D01992311F0846001C082608093CA
S1130CA01D0180911D01877E886080931D01109233
S1130CB01E018FEF8093060115C1002309F0DEC0E9
S1130CC06093F20380916204909163040E94A605EC
S1130CD0909363048093620483E080937E0102C155
S1130CE08091FF048F3F09F4C9C0002309F461C057
S1130CF0823008F4C3C0E0911805EE2309F4EBC078
S1130D004E2F4150E42FFF27E85EFA4F8281992746
S1130D10382F2227442311F4E2E002C0E42FE150EB
S1130D20FF27E85EFA4F82819927282B392B80917F
S1130D306204909163042817390709F09FC080E08A
S1130D400E94C6053091F203809154042091550409
S1130D50982F9F5F963008F090E0921771F0E82F7B
S1130D60FF27EC5AFB4F32838F5F80935404863005
S1130D7010F0109254040E94DD0310921905109291
S1130D80180594E090937E011092FF0410922105BF
S1130D901092F203109263041092620480912D0168
S1130DA08D7F80932D0180911C01882309F49AC0C2
S1130DB084C0823008F44EC0E0911905FF27E85E34
S1130DC0FA4F8281482F5527342F20911D01822FFD
S1130DD0869586958695837099278130910519F0BB
S1130DE00297F9F40EC0277E206120931D0144234D
S1130DF011F485E001C080E080931E013093060168
S1130E0010C080911E01843360F4E0910B01F091D5
S1130E100C01E80FF11D408380911E018F5F8093C8
S1130E201E0180911905E82FFF27E85EFA4F6281C1
S1130E308F5F80931905833010F01092190577277E
S1130E4080916204909163040E94A60590936304C8
S1130E508093620480911805E82FFF27E85EFA4F1B
S1130E6012838F5F80931805833010F01092180559
S1130E708091FF048F5F8093FF0434C010921905A2
S1130E801092180514E010937E011092FF04109242
S1130E9021051092F203109263041092620480916F
S1130EA02D018D7F80932D0181E00E94C6058091E4
S1130EB01C01882329F010937E010E94040512C0AE
S1130EC0002381F081E009CF80911D01982F91705A
S1130ED080FDD5CED7CE80911C059927382F2227A7
S1130EE042E01CCF1F910F9108951F920F920FB6ED
S1130EF00F9211242F933F934F935F936F937F939C
S1130F008F939F93AF93BF93EF93FF935F9B3DC0EA
S1130F106CB1E0916404F09165043097F9F080912C
S1130F20870590918805E80FF91F608301969093D7
S1130F308805809387052091920530919305821747
S1130F40930718F110926504109264048091E404EC
S1130F508330D9F057981092E40417C06E3719F40F
S1130F6060E081E010C080912D016D3721F4826032
S1130F7080932D010AC081FF05C08D7F80932D01D0
S1130F8080E2682780E00E940606FF91EF91BF91FE
S1130F90AF919F918F917F916F915F914F913F910D
S1130FA02F910F900FBE0F901F901895982F8D576B
S1130FB0823068F480912D01816080932D0180E25C
S1130FC089278093FE048DE78093740102C0909377
S1130FD0740161E070E084E791E00E941D059927A7
S1130FE0089578941F920F920FB60F921124FF92D6
S1130FF00F931F932F933F934F935F936F937F931D
S11310008F939F93AF93BF93CF93DF93EF93FF930C
S113101020917F013091800180911F0590912005DE
S11310202817390780F4E0911104F0911204E20FBB
S1131030F31F80812F5F3F4F3093800120937F0106
S11310400E941605C7C01092120410921104109247
S113105081015698FFB6F89480912D0180FF0EC04F
S11310608E7F80932D018091FE048093740161E052
S113107070E084E791E00E941D05A9C08091E50419
S1131080843009F486C0853040F48230F1F0833036
S113109088F5813009F096C00DC0863009F487C008
S11310A0863008F47DC0873009F488C0883009F0A0
S11310B089C08BC0809108040E94D607082F83E062
S11310C08093E504609108040AC080917E050E9423
S11310D0D607082F83E08093E50460917E05809114
S11310E09005909191050E94A60590939105809397
S11310F0900566C0E0916604FF27EE0FFF1FE85ECF
S1131100FB4F80810E94D607082F10916604C12FDF
S1131110DD27FE01EE0FFF1FE85EFB4F608180912B
S11311209005909191050E94A60590939105809356
S11311309005209102042F5F20930204113039F5A9
S113114080912401E0911F01F0912001E80FF11D2D
S1131150E0818F5F8093240190912301981730F4EC
S113116082E08093190440E050E002C04E2F5527DE
S1131170DE01AA0FBB1FFD01E95EFB4F80818230B7
S113118031F02F3F21F0A85EBB4F4C9319C084E08F
S113119012C0809190050E94D607082F85E00BC0ED
S11311A0809191050E94D607082F86E004C00E9412
S11311B04A05082F87E08093E50402C088E003C055
S11311C0002329F089E08093E5040E94DD038F2D3C
S11311D099278FBFFF91EF91DF91CF91BF91AF918D
S11311E09F918F917F916F915F914F913F912F913B
S11311F01F910F91FF900F900FBE0F901F901895A5
S11312001F920F920FB60F9211248F9380919B001F
S113121087FF02C080919C008F910F900FBE0F90AA
S11312201F90189578941F920F920FB60F92112465
S11312300F900FBE0F901F90189578941F920F92E5
S11312400FB60F9211240F900FBE0F901F90189598
S113125078941F920F920FB60F9211240F900FBE25
S11312600F901F90189578941F920F920FB60F92BB
S113127011240F900FBE0F901F90189578941F9211
S11312800F920FB60F9211248F939F938091800039
S1131290909181009F918F910F900FBE0F901F909E
S11312A0189578941F920F920FB60F9211242F93D2
S11312B03F938F939F932FB7F894332780916004C3
S11312C090916104019690936104809360042FBF10
S11312D09F918F913F912F910F900FBE0F901F9070
S11312E018951F920F920FB60F9211248F9383B704
S11312F083BF00B600FCFDCF8F910F900FBE0F90FF
S11313001F90189578941F920F920FB60F92112484
S11313100F900FBE0F901F90189578941F920F9204
S11313200FB60F9211240F900FBE0F901F901895B7
S113133078941F920F920FB60F9211242F933F931C
S11313408F939F932FB7F89433278091FF03909145
S113135000040196909300048093FF032FBF9F9194
S11313608F913F912F910F900FBE0F901F90189562
S11313701F920F920FB60F9211240F900FBE0F9071
S11313801F9018951F920F920FB60F9211240F9071
S11313900FBE0F901F9018951F920F920FB60F92C9
S11313A011240F900FBE0F901F9018951F920F924B
S11313B00FB60F9211240F900FBE0F901F90189527
S11313C01F920F920FB60F9211240F900FBE0F9021
S11313D01F9018951F920F920FB60F9211240F9021
S11313E00FBE0F901F9018951F920F920FB60F9279
S11313F011240F900FBE0F901F9018951F920F92FB
S11314000FB60F9211242F933F934F935F936F93D3
S11314107F938F939F93AF93BF93EF93FF9383B780
S113142083BF00B600FCFDCF81B799270196AA2798
S1131430BB272091410130914201409143015091D9
S11314404401280F391F4A1F5B1F20934101309329
S11314504201409343015093440178940E945E04F6
S1131460FF91EF91BF91AF919F918F917F916F9178
S11314705F914F913F912F910F900FBE0F901F904E
S113148018950F931F93CF93DF93182F8FB7F8946A
S1131490C82FDD270C2F61E080E00E94CA0088235A
S11314A021F0CFBF85E090E024C080911001882313
S11314B0A1F480913301823081F409C082E08093E9
S11314C03301109210010E940101B89AC098109340
S11314D00D0180E00FBF99270CC080913301882350
S11314E069F38FB7F8949927109206058FBF81E0AE
S11314F0F1CFDF91CF911F910F910895AF92BF92D9
S1131500CF92DF92EF92FF920F931F935B016C01D6
S113151060916F0461FF20C02091670430916804DA
S11315204091690450916A04E0906B04F0906C045B
S113153000916D0410916E04D601C501821B930BBA
S1131540A40BB50B8E159F05A007B10728F0E7E69D
S1131550F4E0A0E0B0E022C0E0E7F4E060917804B9
S113156061FF7EC020917004309171044091720437
S113157050917304E0907404F09075040091760423
S113158010917704A21AB30AC40AD50AAE14BF0490
S1131590C006D10608F464C0A1E0B0E060FF04C056
S11315A080858D7F808708C02E0D3F1D401F511FF1
S11315B02083318342835383AA2309F051C080914D
S11315C01B01882309F44CC02091190130911A01A0
S11315D02F5F3F4F30931A01209319018091180116
S11315E08823F1F520932804832F992780932704D7
S11315F08091F5039091F60380932A04892F99270B
S1131600809329048091E30480932B0410922F0487
S11316108091020180932C048091030180932D0416
S11316208091000580932E048091050180933004FD
S11316308FEF809321048093200489E8809326040B
S11316408CE0809324044CE06BE174E080E00E9421
S1131650F103882319F481E08093180110921B018F
S113166088E00E9416011F910F91FF90EF90DF9088
S1131670CF90BF90AF9008950F931F93182F0FB77B
S1131680F89461E080E00E94CA00882371F5109309
S11316900D01809110018823A9F5809133018230D6
S11316A089F58FE00CC00E940101809133018823E9
S11316B049F481E08093330110927A0181E10E9420
S11316C016012AC0809107048F3F31F5E0910F0184
S11316D0EE2311F11CC010920E0104C0FF27E95F34
S11316E0FB4F108210920F0117C081E090E002C0FE
S11316F0880F991F1A95E2F720913201282B209325
S113170032010AC0809133018823E1F6CCCF809165
S11317100E018F3F19F7DFCF802F99278FBF80E00D
S113172090E01F910F9108951F9383E00E94410A56
S11317309927182F882319F083E00E943C0B812FEE
S113174099271F910895EF92FF920F931F93CF93C0
S1131750DF93182F7B01042F8FB7F894C82FDD2750
S113176060E080E00E94E400882321F0CFBF80E0A5
S113177090E014C0CFBF1064812F99279093140474
S1131780809313040E943D01182F402F5527B70161
S113179080E090E00E94B701812F9927DF91CF91DB
S11317A01F910F91FF90EF900895C09860913A01B6
S11317B070913B0141E08FE30E94A30B089582E006
S11317C090E0909372018093710181E080937D0198
S11317D020E030E080910D01843011F421E030E00C
S11317E0232B29F484E00E94410A882319F40E94DF
S11317F0D50B089584E00E943C0B08951F920F922C
S11318000FB60F9211242F933F934F935F936F93CF
S11318107F938F939F93AF93BF93EF93FF938091A5
S1131820710190917201019749F482E090E09093E4
S11318307201809371010E94DF0B05C080917901D0
S11318408F5F80937901FF91EF91BF91AF919F9149
S11318508F917F916F915F914F913F912F910F9055
S11318600FBE0F901F9018951F938091320188230B
S113187009F04BC010910D011F3F09F046C060E014
S11318800E94E400882309F440C081E08093160597
S113189080915A018823E1F11092160585E090E0C9
S11318A045C0923069F5C09A80910E0120E030E085
S11318B08F3F11F421E030E0232BE9F41093100161
S11318C08F3F19F42FEF30E00DC0282F3327F90193
S11318D0E95FFB4F808180930E018F3F11F41093D9
S11318E00F01108320937A0181E08093330181E119
S11318F00E94160105C0109310011092330111C00B
S113190080913301882369F00FC081E090E00EC01C
S11319108091100190913301882319F2923021F0C3
S1131920EFCF80E00E94F50080E090E01F910895E1
S11319301F93CF93DF939FB7F894C92FDD271C2FF4
S113194090910D01981721F0CFBF81E090E03AC04B
S11319508FEF80930D01309132013323F1F48FB76F
S1131960F8949927109206058FBF0E94340CCFBFBC
S113197011C020930D0181E090E002C0880F991FEF
S11319804A95E2F780953823309332018FE00E9424
S113199016011FBF80E090E015C080E065E0E32FF2
S11319A0FF270E945120292F492F5527CF01042EAC
S11319B002C0959587950A94E2F780FDDACF822FCD
S11319C08F5FEFCFDF91CF911F9108951F93CF9336
S11319D0DF938FB7F894C82FDD271C2F80917101F6
S11319E090917201892B29F484E00E94980CCFBF56
S11319F01EC010927D0180917901882311F0B7995E
S1131A0004C00E9908C0882319F08150809379018D
S1131A100E94DF0B0BC081E090E0909372018093F1
S1131A2071011092790184E00E94980C1FBFDF912C
S1131A30CF911F910895FF920F931F93CF93DF933C
S1131A40F82E8B018FB7F894C82FDD2760E080E073
S1131A500E94E400882321F0CFBF80E090E00CC016
S1131A60CFBF8F2D0E943D01812F99270E943D01F8
S1131A70802F0E943D019927DF91CF911F910F91F3
S1131A80FF9008951F931FB7F894809178018823DD
S1131A9019F460E070E009C060E080918405882357
S1131AA009F461E081E0682777278091F7038823B0
S1131AB019F480E090E00AC090E080910C0588233E
S1131AC009F491E081E09827892F9927762F6627DA
S1131AD0770F770F770FE4E0880F991FEA95E1F706
S1131AE0826E9262682B792B81E10E941B0D812FFB
S1131AF099278FBF1F9108958FB7F8949927609104
S1131B0015058FBF85E0689FB0011124625D7E4F8B
S1131B10706488E10E941B0D0895EF92FF921F9359
S1131B20CF93DF93E090F803F090F903F70182A5D7
S1131B309927182F882309F41FE1C0988091770111
S1131B40811749F0612F77276F717070606E70682C
S1131B5085E10E941B0D10937701F70110818FB767
S1131B60F894C82FDD2760E080E00E94E400882319
S1131B7011F0CFBF12C0CFBF8EE390E09093140456
S1131B80809313048EE30E943D011150412F552789
S1131B9060E070E0C7010E94B701DF91CF911F910F
S1131BA0FF90EF9008950F931F93CF93DF93EC0171
S1131BB00FB7F89411270E948600FC018FE38083FD
S1131BC00FBF109282051092810561E082E00E94AD
S1131BD0CA00882319F085E090E072C0809117054F
S1131BE08F5F8093170581508B838FB7F894082FEC
S1131BF0112762E081E00E94E400882329F40FBFEA
S1131C000E94D80181E05BC08FB7F894992724E043
S1131C10209307058FBFD0935204C09351040FBF84
S1131C20FE013196818129819927982F88273327AE
S1131C30822B932B80729C7C8983892F99278183A3
S1131C402981982F882733272164822B932B89831A
S1131C50892F992781831CA618A619A619AA18AA40
S1131C601FA680E88EA761E060930A0540915104A5
S1131C70509152048FB7F894282F33278091340160
S1131C80909135018830910511F0019711F02FBF23
S1131C9015C082E090E09093350180933401609305
S1131CA08F055093F9034093F803109240012FBF1E
S1131CB00E94940B882311F40E948D0D80E09927D3
S1131CC0DF91CF911F910F910895CF93DF93DA01A4
S1131CD0422F2D3118F082E090E05EC0ED018B8739
S1131CE06E83872F99278F832FB7F894332780919A
S1131CF0F3039091F4032FBFFD018483892F992767
S1131D0085832FB7F89433278091110190911201A4
S1131D102FBF8887892F99278987319681812981C7
S1131D209927982F8827332720643868822B932B90
S1131D308983892F99278183435F4C934D508091E8
S1131D401401882359F010921401642FCD010E94CC
S1131D50D30D9927282F8823A9F417C0842F9927F6
S1131D609093500480934F04B0933901A0933801A9
S1131D7083E10E94160180911401882349F489E0CB
S1131D8090E00AC08FEF80931401822F992704C03A
S1131D901092FE0380E090E0DF91CF910895CF93FD
S1131DA0DF93FB01DB0116968683892F9927ED01CA
S1131DB0898386E0838780915E0490915F04892BF8
S1131DC019F085E090E02BC070935F0460935E048B
S1131DD0435F40834D5080911701882319F480E0BC
S1131DE090E01DC08385ED0169817727762F6627F2
S1131DF026813327622B732B10921701242FAF01F6
S1131E000E94650E9927282F882339F081E080935A
S1131E10170110925F0410925E04822F9927DF91BC
S1131E20CF9108951F93CF93DF93182FEB01E82FE1
S1131E30FF27EE0FFF1FE25AFB4F11821082109210
S1131E401701E0915E04F0915F04309721F08091D6
S1131E50800580FF0FC081E08093170103C085E1F6
S1131E600E9416011123C1F4CB51D440A9F410925D
S1131E70180112C020812D50332767817727762FD0
S1131E80662786819927682B792BAF0183850E9469
S1131E90650E882339F3E3CFDF91CF911F91089525
S1131EA09B0180911701882349F460915E0470912D
S1131EB05F046217730711F40E94120F0895CF9202
S1131EC0DF92EF92FF920F931F93CF93DF938C01D6
S1131ED0F62E6A01E22E8FB7F894C82FDD2760E052
S1131EE080E00E94E400882321F0CFBF80E090E0EE
S1131EF01EC0CFBF0F0D111D802F80680E943D01B1
S1131F00F82E16950795802F807C0E943D010E2D9A
S1131F100AC0EE2DFF27E01BF109EC0DFD1D8081A9
S1131F200E943D0101500023A1F78F2D9927DF91D5
S1131F30CF911F910F91FF90EF90DF90CF90089574
S1131F40CF93DF93CDB7DEB72C970FB6F894DEBFEF
S1131F500FBECDBF8FB7F894282FAE014F5F5F4FF0
S1131F60DA01EDE0F5E088E001900D928150E1F7AF
S1131F708091F3039091F4038987892F99278A87A5
S1131F8080910D0490910E048B87892F99278C875B
S1131F902FBF2CE060E080E691E00E945F0F2C965A
S1131FA00FB6F894DEBF0FBECDBFDF91CF91089579
S1131FB01F93CF93DF93182F8FB7F894C82FDD2783
S1131FC060E080E00E94E400882321F0CFBF80E03D
S1131FD090E005C0CFBF812F0E943D019927DF917A
S1131FE0CF911F9108950E943002C09AC09888E052
S1131FF00E94D80F88E00E94D80FC09A84E00E9403
S1132000980C0E94E60C08951F93182F81E090E02D
S1132010909335018093340110925A010E94340C3C
S11320208FB7F894992710932E018FBF8BE00E94ED
S113203016011F910895CF92DF92EF92FF920F93B2
S11320401F93CFB6F894DD240E944B02DC01CB0130
S113205066E470E00E945D20EBE0EE2EF12CE80EC9
S1132060F91EF0928C05E0928B050E94CB020027AA
S11320701127A80197010E948803CFBE1F910F91D9
S1132080FF90EF90DF90CF9008951F93CF93DF934D
S11320908FB7F894C82FDD271C2F809134019091BD
S11320A035010897C9F489E00E94D80F83E00E94A3
S11320B0980CC09A81E090E09093350180933401AC
S11320C08FB7F894992723E020932E018FBF8BE0DC
S11320D00E941601CFBF30C0C09880918F0588231D
S11320E011F085E001C084E00E94D80F83FD09C08F
S11320F080E00E94D80F83FF04C085E090E020E0D8
S113210003C083E090E021E0909335018093340193
S1132110C09A1FBF222341F01092400183E00E9425
S1132120980C0E941B1008C00E94CB0220E431E0EE
S113213040E050E00E948803DF91CF911F91089501
S1132140EF92FF920F931F93CF93DF938B018091B4
S113215013049091140486FF40C18F7B8F3309F0E0
S11321608EC1C0913A01D0913B01588150937301C3
S113217080917101909172018530910509F443C0F9
S11321808630910509F48AC0029709F01FC185E0E1
S113219090E0909372018093710140915701852FD3
S11321A099270196242F3327281739074CF1B7991B
S11321B006C00E9904C0451B4150409357014091FD
S11321C073014A32E8F44423A1F0BE016F5F7F4FEC
S11321D0483018F047E050E007C086E090E0909364
S11321E0720180937101552780E090E00E94B7014D
S11321F046C110927D01C09A84E00E94980CE3C00D
S11322000E94F30F3CC186E090E0909372018093AA
S113221071018091F703882309F439C080910C057A
S11322208823A9F5898185FF32C08F814E812FB71C
S1132230F894332760910D0470910E042FBF9927F1
S1132240982F88275527842B952B8617970759F0A5
S11322508F812E819927982F88273327822B932BC0
S11322608F5F9F4FA1F489818770813081F4C09A78
S1132270C0988AE00E94D80FC09AC0984091730118
S113228047502896BE018FE30E94A30BF8C04091EB
S11322907301475055272896BE01A6CFC09A809156
S11322A07901882339F484E00E94980C80917901A3
S11322B0882311F0B7990AC00E9B08C090917A0543
S11322C0992321F0809173018B3038F480913A0185
S11322D090913B010E943C023DC0913001F5E09198
S11322E07F05FF27EE0FFF1FEE0FFF1FEA5DFA4F7A
S11322F02081318142815381E0913A01F0913B0187
S113230021ABBB27A52F942F832F80ABCA01AA270B
S1132310BB2787A7252F33274427552726A7809136
S11323207F059927019668E070E00E9471208093F0
S11323307F0580917A05815080937A05882351F036
S113234080913A0190913B010E943C0210927F05DA
S113235010927A0580917301FE01E80FF11D8081CE
S113236087FF31C0012B79F169816770E0913A01EF
S1132370F0913B01623019F5A091F803B091F90393
S1132380109709F180913401909135010797D9F4A0
S1132390ED019B8183819817B1F487B78F7E87BF46
S11323A0908181E08CA7E90FF11D8291319688A775
S11323B080818F7789A780E00E94041004C0613077
S11323C011F482E12AC00E94E60C59C010927D01EA
S11323D0C09A84E00E94980C52C08E3309F04FC01A
S11323E0C09A80913401909135010897C9F4C0983E
S11323F089E00E94D80FC09A83E00E94980C81E083
S113240090E090933501809334018FB7F894992725
S113241023E020932E018FBF8BE00E9416012FC072
S113242080918F05882349F484E090E090933501EE
S1132430809334010E94451022C083E00E94980CCE
S113244083E090E090933501809334010E944B0225
S1132450DC01CB0166E371E00E945D20FBE0EF2E1E
S1132460F12CE80EF91EF0925201E09251010E9403
S1132470CB0200271127A80197010E948803DF914E
S1132480CF911F910F91FF90EF9008951F920F929B
S11324900FB60F9211242F933F934F935F936F9333
S11324A07F938F939F93AF93BF93EF93FF932FB13A
S11324B0E091E104F091E204309739F080915C04FA
S11324C090915D04E80FF91F208380915C04909142
S11324D05D04019690935D0480935C0480E00E9407
S11324E0FB0040913C0150913D0180915C0490912E
S11324F05D048417950718F40E9449011CC060917B
S1132500E1047091E2048091850590918605109212
S1132510E2041092E104109286051092850510924F
S11325203D0110923C0110925D0410925C042FB1A5
S113253020E00E94A010FF91EF91BF91AF919F9175
S11325408F917F916F915F914F913F912F910F9058
S11325500FBE0F901F90189578941F920F920FB68C
S11325600F9211242F923F924F925F926F927F921B
S11325708F929F92AF92BF92CF92DF92EF92FF928F
S11325800F931F932F933F934F935F936F937F9377
S11325908F939F93AF93BF93CF93DF93EF93FF9367
S11325A0C6B5D7B58FB7F894282E0E94CB029B01ED
S11325B02C1B3D0B442755272B013C01421A530A7F
S11325C0640A750A80913401909135018530910532
S11325D021F0069709F0E0C0BFC086E090E0909338
S11325E035018093340131E0332E30927C01109216
S11325F0360180E00E94A303E091F803F091F9030F
S113260041AABB27A72D962D852D80ABC301AA27F0
S1132610BB2787A7872D9927AA27BB2786A7E091E1
S1132620F803F091F90385A5882309F484C0608137
S1132630655077274F01860E971EF4012081E180B3
S11326408281A3809927AA27BB27BA2FA92F982F65
S11326508827332744275527522F442733272227F7
S1132660FF24002711278701FF24EE242E293F2968
S1132670402B512BBB24CC24DD242A293B294C2973
S11326805D29822B932BA42BB52B84199509A609BC
S1132690B7098383292F3A2F4B2F552722839D0176
S11326A04427552721838B2F9927AA27BB2780836B
S11326B0C09824E0A40180E090E00E945F0FC09ADB
S11326C0F4012081E1808281A3809927AA27BB2776
S11326D0BA2FA92F982F8827332744275527522FFD
S11326E0442733272227FF24002711278701FF24AB
S11326F0EE242E293F29402B512BBB24CC24DD244E
S11327002A293B294C295D29822B932BA42BB52BF9
S1132710840D951DA61DB71D8383292F3A2F4B2F9A
S1132720552722839D014427552721838B2F9927E1
S1132730AA27BB278083E091F803F091F9038181F4
S113274085FF02C030925A0183E00E94980C87B73B
S11327508F7E87BF84997AC010927C0181E00E94A9
S1132760A303E091F803F091F903818185FF0FC081
S113277087E090E090933501809334010E94CB026E
S113278020E031E040E050E00E94880303C080E094
S11327900E940410849B5AC080913601882391F5CD
S11327A080917C01882371F511E010937C010E94D3
S11327B0A30380B320917A05283098F4E0917F0533
S11327C0E20FFF27E770F070EE0FFF1FEE0FFF1F01
S11327D0EA5DFA4F40825182628273822F5F2093B6
S11327E07A0510933601D0931604C0931504849986
S11327F02DC0992764E0969587956A95E1F7182F7F
S1132800117001C010E080917C018130F9F41092C4
S11328107C010E94A303109236011123B9F4809124
S1132820150490911604C81BD90B2A9778F480914B
S11328307A05882319F0815080937A058091F803F2
S11328409091F903009711F00E943C022FBEFF9172
S1132850EF91DF91CF91BF91AF919F918F917F9134
S11328606F915F914F913F912F911F910F91FF9025
S1132870EF90DF90CF90BF90AF909F908F907F901C
S11328806F905F904F903F902F900F900FBE0F90DE
S11328901F90189578941F920F920FB60F921124DF
S11328A01F932F933F934F935F936F937F938F93D4
S11328B09F93AF93BF93EF93FF9387B78F7E87BFA9
S11328C078941FB7F8948091030490910404A09124
S11328D00504B09106040097A105B10509F051C0A3
S11328E080913401909135018530910561F18630F4
S11328F0910530F48330910549F0049781F51AC0AD
S113290087309105F1F0089751F514C0869B0FC0EC
S113291084E090E090933501809334010E94CB02CF
S113292027E030E040E050E00E94880318C00E9495
S11329301B1015C00E94940B882389F40E94451033
S11329400EC080E00AC089E00E94D80F81E00E9496
S1132950A30383E00E94980C87E00E9404108091F6
S11329602F0190913001019771F482E090E09093EF
S1132970300180932F01DE98DE9A80E00E943C0BA8
S113298002C00E94E802812F99278FBFFF91EF9127
S1132990BF91AF919F918F917F916F915F914F9173
S11329A03F912F911F910F900FBE0F901F9018957C
S11329B061E081E00E94CA008823E9F48FB7F894AB
S11329C0282F332780912F0190913001892B11F00A
S11329D02FBF20C081E090E09093300180932F01BD
S11329E02FBFDD9A0E94CB0224E130E040E050E0AA
S11329F00E9488030FC062E081E00E94E400882303
S1132A0019F089E090E0089561E081E00E94E4001B
S1132A10882319F080E090E0089585E090E008951F
S1132A20AF92BF92CF92DF92EF92FF920F931F93D8
S1132A30CF93DF93CDB7DEB7A8970FB6F894DEBF78
S1132A400FBECDBFE82FFF27E631F10510F00C943F
S1132A503E1CEA5BFF4FEE0FFF1F0590F491E02D43
S1132A60099480918005882311F40C943E1C40E065
S1132A7051E0CFC68FB7F894282F3327422F909177
S1132A80750180910104981739F480918A0588238F
S1132A9019F410920B0502C44FBFE0910104FF2703
S1132AA0EE0FFF1FEA51FB4F0190F081E02D808172
S1132AB08D509927082F809359011EE0C12ED12CE7
S1132AC0CE0EDF1E8685BFE0EB2EF12CEE0EFF1E30
S1132AD027859927982F88273327822B932B909328
S1132AE0F6038093F5038489809394058589809304
S1132AF0050185898130C1F5809103018130A1F5FB
S1132B0010910201113081F5868527859927982F28
S1132B1088273327822B932B8130910511F002975C
S1132B2019F5809118018823F9F410932B0410935C
S1132B30300484E680932A041092290410932C0410
S1132B4010922F04D9984CE06BE174E08FEF9FEF63
S1132B500E94CF0E882311F4109318010E94E801FB
S1132B600E94FB040E94DF01F6018081F7012081AD
S1132B709927982F88273327822B932B90933F01F3
S1132B8080933E01E0910104FF27EE0FFF1FEA51FD
S1132B90FB4F60817181402F82E00E94F103882302
S1132BA009F048C181E080931B0168C68FB7F8948F
S1132BB0109289052091E50440E0283009F441E0B1
S1132BC030E0293009F431E0442311F4332351F087
S1132BD01092E504E0916604FF27EE0FFF1FE95E03
S1132BE0FB4F108299278FBF442311F4332331F113
S1132BF09FB7F89480917E058F5F80937E058091C6
S1132C000804833479F42091550480915404821784
S1132C1079F0822F8F5F80935504863048F01092AC
S1132C20550406C0A0E0442309F4A1E071E002C009
S1132C30A0E070E0892F99278FBF06C0222311F0EE
S1132C40FF246DC0A0E070E08FB7F894992720911D
S1132C501C018FBF222341F08FB7F89499272AE0F3
S1132C602093E5048FBF42C08FB7F89499276091F1
S1132C701704409119048FBF8FB7F894282F332776
S1132C8050E09091540480915504981709F451E050
S1132C902FBF552341F5662331F55FB7F89482E0E1
S1132CA0809317048FB7F894282F332740E090912E
S1132CB0540480915504981709F441E02FBF44232C
S1132CC011F080E006C0E0915504FF27EC5AFB4F59
S1132CD082818093180483E480930804109266042C
S1132CE0852F99270EC04150423010F0FF240CC0AC
S1132CF08FB7F894992725E42093080421E02093C2
S1132D0066048FBF51E0F52E772349F08FB7F8940E
S1132D109927A09325018FBF85E00E9416018FB7E4
S1132D20F894082F11278091E5048A3019F40E9441
S1132D300405C2C30FBFFF2009F4A0C52FB7F89440
S1132D40332710929105109290051092020481E0AD
S1132D508093E5042FBF0E944A05882309F48EC599
S1132D608FB7F894992729E02093E5048FBF0E9438
S1132D70DD0384C5569857981092E404109281019B
S1132D80539A549A579A8FB7F89499271092E50456
S1132D9010927E018FBF10928A050E94B603609341
S1132DA06704709368048093690490936A0484E6CA
S1132DB090E0A0E0B0E080936B0490936C04A09347
S1132DC06D04B0936E0480916F048E7F8260809353
S1132DD06F0488E00E94160151C584E0FBCF53982C
S1132DE054984CC510922201109221018FB7F89487
S1132DF09927209125018FBF80912601811123E01D
S1132E00A0911F01B091200180912701882321F016
S1132E10823009F033C50CC0FD018385893809F07F
S1132E202DC5AB51B44009F029C51092180126C52F
S1132E30222319F00E94DF0120C03FB7F8942091AB
S1132E400104E22FFF27EE0FFF1FEA51FB4F8081A1
S1132E509181A817B90771F4822F8F5F80930104C1
S1132E608C3010F01092010480918A05882311F0AF
S1132E7010928A05832F99278FBF80E0ABCF8FB73D
S1132E80F89499272091290100912A0110912B018E
S1132E9030912C01E09058018FBF222309F4E8C43B
S1132EA0223009F462C0222309F05FC090E0F801E7
S1132EB08385893809F059C080911801882309F065
S1132EC054C09C3009F051C0868527859927982FD6
S1132ED088273327822B932B80932A04892F9927C1
S1132EE080932904B1E0FB2EF0922B048189992769
S1132EF087FD9095282F811121E0209302012093D2
S1132F002C04F8018289992787FD9095282F811137
S1132F1021E02093030120932D04F801838999274C
S1132F2087FD9095282F811121E02093040120939F
S1132F302E04F801848980932F0410923004109297
S1132F403104878910923204882311F0F0923204FC
S1132F500E94FB044CE06BE174E08FEF9FEF0E9452
S1132F60CF0E882311F4F09218018FB7F894EE2D48
S1132F70FF27EE0FFF1FE95FFE4F118300832091AF
S1132F801D01EE2011F02B7F01C02D7F20931D0128
S1132F9010922801992700C180917601882361F558
S1132FA02091220530912305409124055091250557
S1132FB0EFB7F894FF2760910205709103058091A3
S1132FC0040590910505E0905301F090540100919F
S1132FD05501109156016E0D7F1D801F911FEFBF8B
S1132FE0209322053093230540932405509325050F
S1132FF0109276010E94E1040E94B6036EC00E9402
S1133000B6035B016C018FB7F894992710925304AF
S11330108FBF80916F0481FF25C0809167049091D8
S11330206804A0916904B0916A04A6019501281B63
S1133030390B4A0B5B0BE0906B04F0906C0400912D
S11330406D0410916E04E21AF30A040B150B3FEFA2
S1133050E3163FEFF3063FEF03073FE7130711F0D3
S113306061E009C07FEFE72E7FEFF72E7FEF072F98
S11330707FE7172F60E08091780481FF24C080915E
S1133080700490917104A0917204B0917304A6012C
S11330909501281B390B4A0B5B0BDA01C9012091FE
S11330A07404309175044091760450917704281B80
S11330B0390B4A0B5B0B2E153F05400751071CF4D7
S11330C079018A0103C0662309F4D8C31E141F04BE
S11330D0100611062CF0C601B5010E947E0ACEC36B
S11330E0E0922205F0922305009324051093250510
S11330F081E080937601A8019701C601B5010E9481
S1133100E104BCC30FB7F894112781E00E94A30324
S113311061E0E62EF12CF0923501E0923401109238
S1133120360110925A01109277010FBF0FB7F8942D
S113313011270E943002F0927201E0927101109204
S11331407D0189B78F7B89BF80E488BF8AB780629D
S11331508ABF8AB78F7E8ABF89B7806489BF0FBF51
S11331608FB7F894082F112780912F019091300187
S1133170049719F483E00E94D80F0FBF0FB7F89497
S11331801127C09A80E00E94980C0FBF8FB7F89463
S1133190992722E0209307058FBF70C38FB7F89457
S11331A0992710920705F8CF8FB7F8949927F090D4
S11331B02E018FBF63E081E00E94E400882359F16F
S11331C00FB7F8941127109235011092340187B784
S11331D08F7E87BF87B78F7D87BF83E00E94980C5F
S11331E0C09A0FBF0FB7F894112710927201109272
S11331F071010E943002C09A89B78F7B89BF0FBFCB
S11332001092300110922F01DE98DD98DE9A8AE048
S11332100E94160107C08FB7F894992722E02093E3
S113322007058FBF00915104109152040E94D801E8
S11332308091810590918205892B09F01FC38FEF3E
S1133240809314014F2DB801DBC28FB7F894282F57
S11332503327122F80918D05882301F581E0809317
S11332608D0580912F0190913001049721F481E024
S11332700E943C0B03C08DE00E9416011FBFFEC2DA
S11332808FB7F894992710928D0586CF8FB7F8944D
S1133290282F332780913101882311F02FBFEEC2EC
S11332A02FBF80B3992756E0969587955A95E1F7F5
S11332B0182F117090910F04809110048917D9F080
S11332C01917C9F484E090E09093300180932F01A2
S11332D08FB7F894992721E0209331018FBF60E0E4
S11332E070E08DE10E941B0D0E94A00FC09AC0984F
S11332F089E00E941601109310048EE06BCD8FB705
S1133300F894992710910D018FBF123009F465C00C
S1133310133030F4112359F0113009F0AFC248C012
S1133320133009F474C0143009F0A8C2A0C0C098C6
S11333308FB7F894082F112780912F0190913001B5
S1133340029709F0B9C083E090E090933001809334
S11333502F0168E170E08DE10E941B0D81E08093F4
S11333600F041092310180B3992746E09695879512
S11333704A95E1F781709070809310048EE00E946A
S1133380160181E00E94D80F6FE772E08CE10E9481
S11333901B0D0E947C0D0E94420D66E57AE287E1D6
S11333A00E941B0D6FEF70E885E10E941B0D84C025
S11333B0C09886E00E94D80F0E947C0D0E94420DA6
S11333C00E94A00FC09AC09883E00E94D80FC09AB0
S11333D081E00E94980C8DE0FDCCC0988FB7F894E2
S11333E0082F112760E080E00E94E400882311F098
S11333F00FBF0AC00FBF83E50E943D0180E00E9419
S11334003D0180E00E943D01C09A82E02DC08FB74B
S1133410F8949927209134018FBF243039F0283053
S113342041F0223001F50E948D0D28C20E94451002
S113343025C2C09889E00E94D80FC09A83E00E94F8
S1133440980C8FB7F894992721E030E03093350138
S1133450209334018FBF8FB7F894992710932E01CE
S11334608FBF8BE0B7CC83E00E94980C07C20E9408
S1133470D50B04C20FB7F894112740913C01509129
S11334803D016091E1047091E20480918505909181
S113349086051092E2041092E104109286051092BF
S11334A0850510923D0110923C0110925D0410922A
S11334B05C0420E00E94A0100FBFE0C12FB7F89475
S11334C0332780917A018093100182E08093330145
S11334D02FBF80911001882309F0D0C1B89AC098F9
S11334E08FE078CCA0913A01B0913B01DC909D0132
S11334F02D0D311DF9018081881F8827881FFD014A
S113350083A7F90180818F77FD0181A72150304085
S1133510F9018081FD0180A7A0913A01B0913B019E
S1133520FD0132818FB7F8949927209178018FBFDC
S1133530222309F490C0832F992796958795969511
S11335408795837090708230910541F5878146811B
S11335502FB7F894332760910D0470910E042FBF98
S11335609927982F88275527842B952B86179707FB
S113357019F481E090E06CC0FD018781268140E070
S113358050E09927982F88273327822B932B8F5F1E
S11335909F4F11F441E050E0CA015AC0039709F06B
S11335A006C19E012F5F3F4F4DE055E088E0FA01D0
S11335B00190AF01F90101929F018150C1F79E0171
S11335C02F5D3F4FAE014F5F5F4F88E0FA010190DE
S11335D0AF01F90101929F018150C1F79E01275F5C
S11335E03F4FAE014F5D5F4F88E0FA010190AF019C
S11335F0F90101929F018150C1F79E012F5E3F4F57
S1133600AE01475F5F4F88E0FA010190AF01F90115
S113361001929F018150C1F79E01275E3F4FAE0189
S11336204F5E5F4F88E0FA010190AF01F90101920A
S11336309F018150C1F748E050E0BE01675E7F4FB3
S1133640CD0106960E94FC20892B09F0B0C003C06E
S1133650882309F4ACC0FCE0FD1508F0A8C0E09094
S11336603A01F0903B01F7012281822F992716E05D
S1133670969587951A95E1F7039719F468E070E039
S113368002C062E070E0822F9927969587959695FF
S1133690879583709070039719F488E090E002C0D6
S11336A082E090E026E030E0E20EF31E40E050E0DD
S11336B020E030E0F701E80FF91F8AEF9FEFE80EF2
S11336C0F91E05C08191480F511D2F5F3F4F2617EA
S11336D03707C4F3F70163818FEF809383058FB7B6
S11336E0F894782F20E030E0E5E4F1E080819181E6
S11336F08417950729F48281861731F12093830575
S11337002F5F3F4F33962430310581F77FBF90916F
S113371083053FB7F8949F3F21F0809137018917C3
S1133720A9F420913701822F9927FC01EE0FFF1F86
S1133730E80FF91FEB5BFE4F5183408362832F5FD9
S11337402370209337010EC07FBF2DC0892F992786
S1133750FC01EE0FFF1FE80FF91FEB5BFE4F5183D7
S113376040836283832F99278FBF0FB7F894112763
S1133770C7010E948600FC0190810FBFF70183A559
S1133780882389F09F3379F4AD2DAD508701045F10
S11337901F4F2FB7F89433272FBF4A2FB801C70103
S11337A00E94F1017C01F0923B01E0923A018FB753
S11337B0F894992710927D018FBF0E94E60C5EC099
S11337C09091FE0380911401981709F457C09093C7
S11337D014019923D1F400913801109139016091B9
S11337E04F04C8010E94D30D482F5527442309F4E0
S11337F045C08FEF809314016091380170913901B5
S1133800F80183850E94500F39C08FEF8093140113
S113381035C090918005852F8923B9F0E42FFF27C7
S1133820EE0FFF1FE25AFB4F20813181118210827B
S1133830852F8095982390938005442331F42B5150
S11338403440C9F41092180116C04F5F4830B0F4E8
S1133850550FDFCF80911701E82FFF27EE0FFF1FD1
S1133860E25AFB4F6081718141E00E94120F06C051
S1133870932F9C501CCB550F41E0CBCFA8960FB68D
S1133880F894DEBF0FBECDBFDF91CF911F910F9192
S1133890FF90EF90DF90CF90BF90AF90089580910C
S11338A07B058F3FB1F0282F3327F901E55AFE4FEE
S11338B0808180937B058F3F11F480938E058FEF79
S11338C080832F3F31F0822F0E94101581E090E019
S11338D0089580E090E00895FF920F931F93CF9393
S11338E0DF93CDB7DEB7E0970FB6F894DEBF0FBE17
S11338F0CDBFFFB6F89446E150E06FEF70E08BE582
S113390091E00E9409218FEF80937B0580938E05BF
S113391081E08EBD88E080BF83E083BF8CB59DB518
S11339204AE72CB53DB52817390708F4415044231C
S113393011F0C901F6CF92B782B78917E9F32CB514
S11339403DB592B782B78917E9F38CB59DB5821B53
S1133950930B409635E0969587953A95E1F79093C9
S11339607D0580937C0513BE83B78EBD8EB580BF65
S113397012BE1DBC1CBC8FEF86BF86B780937C0033
S113398080B7992787709070892BD1F715BA8FEF7C
S113399084BBD498DC981DBC1CBC87B7846087BFEB
S11339A08EB5887F84608EBD109289001092880045
S11339B080917D00846080937D0080918A00887F5F
S11339C0826080938A00D29AD19AD09ADA9AD99A4C
S11339D0D89A0E944F1C8823E1F710921704109282
S11339E019048AE08093E5041092020410920804FA
S11339F010927E05109291051092900510928905FF
S1133A0010926604109219051092180584E08093B0
S1133A107E011092FF04109221051092F20310927D
S1133A2063041092620410925504109254048FEFB0
S1133A3080937B01E5E4F1E08FEF9FEF9183808336
S1133A401282339621E0E135F207C1F70E944B025E
S1133A506093170580910001909101010196AA27B6
S1133A60BB278093FA039093FB03A093FC03B093CA
S1133A70FD0386E495E090933B0180933A018E9890
S1133A80B89A8C988FEF80930704109206051092D1
S1133A9007051092080510920905B89AD69AD59A86
S1133AA08FB7F894992720911101309112018FBF9B
S1133AB030930E0420930D040E945E0529A73AA7B3
S1133AC04BA75CA76DA77EA78FA798ABDE01919645
S1133AD0FE01B99688E001900D928150E1F7DE0174
S1133AE05196FE01B19688E001900D928150E1F764
S1133AF0DE015996FE01719688E001900D92815085
S1133B00E1F7ADE0B5E0FE01799688E001900D9211
S1133B108150E1F78091130199279093F4038093E6
S1133B20F3038FE1809301058AE1809315050E94D8
S1133B305E0529A73AA74BA75CA76DA77EA78FA709
S1133B4098ABDE019196FE01B99688E001900D9242
S1133B508150E1F7DE011196FE01B19688E00190F3
S1133B600D928150E1F7DE011996FE01319688E04D
S1133B7001900D928150E1F7ADE0B5E0FE01399678
S1133B8088E001900D928150E1F7ADE0B5E0FD01D0
S1133B9037969C9180818D939083319785E0E031B5
S1133BA0F807B9F781E08093780110928405809337
S1133BB0F70310920C0580B7886080BF8BE083BF49
S1133BC086EE81BF87B7826087BF0E945E0412E0E1
S1133BD006E060917C0570917D05882799272CE08B
S1133BE0660F771F881F991F2A95D1F720E031EEC1
S1133BF040E050E00E9484202150304029B9832FB6
S1133C009927809390001BB9009395001AB82093CC
S1133C1099008093980010939B0000939D0010924C
S1133C209A0084E490E090931E0580931D05109201
S1133C301704109219048AE08093E5041092020498
S1133C401092080410927E0510929105109290052E
S1133C5010928905109266041092190510921805A5
S1133C6084E080937E011092FF041092210510924B
S1133C70F20310926304109262041092550410929D
S1133C8054040E944F1C8823E1F78F2D99278FBF7E
S1133C907894E6EEF4E082E891E081939193C496FF
S1133CA024E0EE3FF207C9F7109201041092750167
S1133CB010920B0581E080938A050E948E050E9474
S1133CC0D8140E948E050E94DF018FB7F894482F04
S1133CD055274BC087B7992783709070892B19F4A7
S1133CE0E5E0F0E013C080B7992787709070892BC6
S1133CF0D1F781B792B7891B8C3030F082B7853FFA
S1133D0018F4E3E0F0E002C0E2E0F0E087B7887B7B
S1133D10C1F480917D008B7FA1F46E9912C08AB1A9
S1133D2090919A00892B887161F48091740082FDCE
S1133D3008C0379B03C081E090E005C085E090E0B7
S1133D4002C080E090E025B78E1708F4E82FFF2723
S1133D50E854FF4FE491237E2062E22BE5BF789480
S1133D608895F89485B78F7D85BF80917B058F3FBB
S1133D7009F4B0CF282F3327F901E55AFE4F80818B
S1133D8080937B058F3F11F480938E058FEF8083A2
S1133D902F3F09F49FCF4FBF822F0E94101595CF5C
S1133DA0ACE2B0E0E6EDFEE10C94C520222E332E09
S1133DB0442E552E662E772E882E992EFE0131968E
S1133DC0A8E01192AA95E9F729823A824B825C8293
S1133DD06D827E828F829886FE013996B8E01192B8
S1133DE0BA95E9F7A986BA86CB86DC86ED86FE8687
S1133DF00F87188B89819A81AB81BC8189A79AA787
S1133E00ABA7BCA77C018D018FEF9FEFA0E0B0E0D2
S1133E10E822F9220A231B2389A59AA5ABA5BCA5F0
S1133E201D014424552489859A85AB85BC858DA3C1
S1133E309EA3AFA3B8A75C016D018FEF9FEFA0E035
S1133E40B0E0A822B922CA22DB228DA19EA1AFA193
S1133E50B8A53D0188249924C801B701A60195019C
S1133E600E94A62069A37AA38BA39CA3C801B701CF
S1133E70A40193010E94A6207B018C01C201B1011F
S1133E80A60195010E94A6205B016C01C201B1014B
S1133E90A40193010E94A6203B014C01EA0CFB1CE7
S1133EA00C1D1D1D89A19AA1ABA1BCA19D01442794
S1133EB055272E0D3F1D401F511F2A153B054C054C
S1133EC05D0540F480E090E0A1E0B0E0680E791E6A
S1133ED08A1E9B1ECA01AA27BB27860D971DA81DF3
S1133EE0B91D8D8F9E8FAF8FB8A3A90133272227C9
S1133EF089A19AA1ABA1BCA1A070B070280F391FF1
S1133F004A1F5B1F298F3A8F4B8F5C8FA98CBA8C09
S1133F10CB8CDC8CED8CFE8C0F8D18A1FE01719680
S1133F2098E011929A95E9F7ED8AFE8A0F8B188F23
S1133F302D813E814F8158856DA17EA18FA198A5C9
S1133F400E94A6203B014C012D853E854F85588952
S1133F5069A57AA58BA59CA50E94A6202D893E89DA
S1133F604F89588D260F371F481F591F260D371D9F
S1133F70481D591D2D8B3E8B4F8B588F6D887E8825
S1133F808F88988C2A2D3B2D4C2D5D2D662D772DF9
S1133F90882D992DE2E1AC960C94E120A0E1B0E0EB
S1133FA0E4EDFFE10C94C520222E332E442E552E31
S1133FB0662E772E882E992E002309F466C088E099
S1133FC0FE01319611928A95E9F729833A834B834E
S1133FD05C836D837E838F829887E0E2E01B1E16EC
S1133FE0CCF52D813E814F815885602F772767FD61
S1133FF07095DA01C901062E04C0B695A795979568
S113400087950A94D2F78D879E87AF87B88B04C0B3
S1134010220F331F441F551FEA95D2F789819A81D5
S1134020AB81BC8104C0B695A795979587956A9591
S1134030D2F7282B392B4A2B5B2B29873A874B87BE
S11340405C8729843A844B845C846D847E848F8469
S113405098881BC01D861E861F86188A2E2F33271C
S113406027FD3095309521953F4F8D819E81AF81FD
S1134070B88504C0B695A795979587952A95D2F7E4
S113408089879A87AB87BC87DCCF222D332D442DBB
S1134090552D662D772D882D992DE2E160960C948F
S11340A0E120991B79E004C0991F961708F0961B2C
S11340B0881F7A95C9F780950895AA1BBB1B51E107
S11340C007C0AA1FBB1FA617B70710F0A61BB70B84
S11340D0881F991F5A95A9F780959095BC01CD0129
S11340E0089597FB092E07260AD077FD04D0E5DF53
S11340F006D000201AF4709561957F4F0895F6F765
S1134100909581959F4F0895A1E21A2EAA1BBB1B7F
S1134110FD010DC0AA1FBB1FEE1FFF1FA217B3078F
S1134120E407F50720F0A21BB30BE40BF50B661FA5
S1134130771F881F991F1A9469F760957095809569
S113414090959B01AC01BD01CF010895629FD00100
S1134150739FF001829FE00DF11D649FE00DF11D3E
S1134160929FF00D839FF00D749FF00D659FF00DED
S11341709927729FB00DE11DF91F639FB00DE11DDA
S1134180F91FBD01CF01112408952F923F924F9240
S11341905F926F927F928F929F92AF92BF92CF92D3
S11341A0DF92EF92FF920F931F93CF93DF93CDB7DC
S11341B0DEB7CA1BDB0B0FB6F894DEBF0FBECDBF54
S11341C009942A88398848885F846E847D848C8425
S11341D09B84AA84B984C884DF80EE80FD800C812E
S11341E01B81AA81B981CE0FD11D0FB6F894DEBF11
S11341F00FBECDBFED010895FB01DC0104C08D911C
S11342000190801921F441505040C8F7881B990B44
S11342100895DC0101C06D9341505040E0F70895CA
S1054220FFCFCA
S1134222010001010101FF7904AD047904FFFFFFDC
S10B4232FF010022FFFFFF0160
S9030000FC
